{
  "contracts/Learn.sol": {
    "Learn": {
      "abi": [
        {
          "inputs": [],
          "stateMutability": "nonpayable",
          "type": "constructor"
        },
        {
          "anonymous": false,
          "inputs": [
            {
              "indexed": true,
              "internalType": "address",
              "name": "user",
              "type": "address"
            },
            {
              "indexed": false,
              "internalType": "string",
              "name": "candidateName",
              "type": "string"
            },
            {
              "indexed": false,
              "internalType": "string",
              "name": "courseTitle",
              "type": "string"
            },
            {
              "indexed": false,
              "internalType": "string",
              "name": "issuingAuthority",
              "type": "string"
            },
            {
              "indexed": false,
              "internalType": "uint256",
              "name": "duration",
              "type": "uint256"
            },
            {
              "indexed": false,
              "internalType": "string",
              "name": "issueDate",
              "type": "string"
            },
            {
              "indexed": false,
              "internalType": "address",
              "name": "addedBy",
              "type": "address"
            }
          ],
          "name": "CertificateAdded",
          "type": "event"
        },
        {
          "anonymous": false,
          "inputs": [
            {
              "indexed": true,
              "internalType": "address",
              "name": "from",
              "type": "address"
            },
            {
              "indexed": true,
              "internalType": "address",
              "name": "to",
              "type": "address"
            },
            {
              "indexed": false,
              "internalType": "uint256",
              "name": "amount",
              "type": "uint256"
            }
          ],
          "name": "TokensTransferred",
          "type": "event"
        },
        {
          "inputs": [
            {
              "internalType": "string",
              "name": "_candidateName",
              "type": "string"
            },
            {
              "internalType": "string",
              "name": "_courseTitle",
              "type": "string"
            },
            {
              "internalType": "string",
              "name": "_issuingAuthority",
              "type": "string"
            },
            {
              "internalType": "uint256",
              "name": "_duration",
              "type": "uint256"
            },
            {
              "internalType": "string",
              "name": "_issueDate",
              "type": "string"
            }
          ],
          "name": "addCertificate",
          "outputs": [],
          "stateMutability": "nonpayable",
          "type": "function"
        },
        {
          "inputs": [
            {
              "internalType": "address",
              "name": "",
              "type": "address"
            }
          ],
          "name": "balanceOf",
          "outputs": [
            {
              "internalType": "uint256",
              "name": "",
              "type": "uint256"
            }
          ],
          "stateMutability": "view",
          "type": "function"
        },
        {
          "inputs": [],
          "name": "decimals",
          "outputs": [
            {
              "internalType": "uint8",
              "name": "",
              "type": "uint8"
            }
          ],
          "stateMutability": "view",
          "type": "function"
        },
        {
          "inputs": [],
          "name": "getCertificates",
          "outputs": [
            {
              "components": [
                {
                  "internalType": "string",
                  "name": "candidateName",
                  "type": "string"
                },
                {
                  "internalType": "string",
                  "name": "courseTitle",
                  "type": "string"
                },
                {
                  "internalType": "string",
                  "name": "issuingAuthority",
                  "type": "string"
                },
                {
                  "internalType": "uint256",
                  "name": "duration",
                  "type": "uint256"
                },
                {
                  "internalType": "string",
                  "name": "issueDate",
                  "type": "string"
                },
                {
                  "internalType": "address",
                  "name": "addedBy",
                  "type": "address"
                }
              ],
              "internalType": "struct Learn.Certificate[]",
              "name": "",
              "type": "tuple[]"
            }
          ],
          "stateMutability": "view",
          "type": "function"
        },
        {
          "inputs": [
            {
              "internalType": "address",
              "name": "user",
              "type": "address"
            }
          ],
          "name": "getCertificatesByUser",
          "outputs": [
            {
              "components": [
                {
                  "internalType": "string",
                  "name": "candidateName",
                  "type": "string"
                },
                {
                  "internalType": "string",
                  "name": "courseTitle",
                  "type": "string"
                },
                {
                  "internalType": "string",
                  "name": "issuingAuthority",
                  "type": "string"
                },
                {
                  "internalType": "uint256",
                  "name": "duration",
                  "type": "uint256"
                },
                {
                  "internalType": "string",
                  "name": "issueDate",
                  "type": "string"
                },
                {
                  "internalType": "address",
                  "name": "addedBy",
                  "type": "address"
                }
              ],
              "internalType": "struct Learn.Certificate[]",
              "name": "",
              "type": "tuple[]"
            }
          ],
          "stateMutability": "view",
          "type": "function"
        },
        {
          "inputs": [],
          "name": "name",
          "outputs": [
            {
              "internalType": "string",
              "name": "",
              "type": "string"
            }
          ],
          "stateMutability": "view",
          "type": "function"
        },
        {
          "inputs": [],
          "name": "owner",
          "outputs": [
            {
              "internalType": "address",
              "name": "",
              "type": "address"
            }
          ],
          "stateMutability": "view",
          "type": "function"
        },
        {
          "inputs": [
            {
              "internalType": "address",
              "name": "_to",
              "type": "address"
            }
          ],
          "name": "sendTokens",
          "outputs": [],
          "stateMutability": "nonpayable",
          "type": "function"
        },
        {
          "inputs": [],
          "name": "symbol",
          "outputs": [
            {
              "internalType": "string",
              "name": "",
              "type": "string"
            }
          ],
          "stateMutability": "view",
          "type": "function"
        },
        {
          "inputs": [],
          "name": "totalSupply",
          "outputs": [
            {
              "internalType": "uint256",
              "name": "",
              "type": "uint256"
            }
          ],
          "stateMutability": "view",
          "type": "function"
        }
      ],
      "evm": {
        "bytecode": {
          "linkReferences": {},
          "object": "60806040523480156200001157600080fd5b5033600260006101000a81548173ffffffffffffffffffffffffffffffffffffffff021916908373ffffffffffffffffffffffffffffffffffffffff1602179055506000601260ff16600a62000068919062000279565b6064620000769190620002ca565b9050806000819055508060016000600260009054906101000a900473ffffffffffffffffffffffffffffffffffffffff1673ffffffffffffffffffffffffffffffffffffffff1673ffffffffffffffffffffffffffffffffffffffff168152602001908152602001600020819055505062000315565b7f4e487b7100000000000000000000000000000000000000000000000000000000600052601160045260246000fd5b60008160011c9050919050565b6000808291508390505b60018511156200017a57808604811115620001525762000151620000ec565b5b6001851615620001625780820291505b808102905062000172856200011b565b945062000132565b94509492505050565b60008262000195576001905062000268565b81620001a5576000905062000268565b8160018114620001be5760028114620001c957620001ff565b600191505062000268565b60ff841115620001de57620001dd620000ec565b5b8360020a915084821115620001f857620001f7620000ec565b5b5062000268565b5060208310610133831016604e8410600b8410161715620002395782820a905083811115620002335762000232620000ec565b5b62000268565b62000248848484600162000128565b92509050818404811115620002625762000261620000ec565b5b81810290505b9392505050565b6000819050919050565b600062000286826200026f565b915062000293836200026f565b9250620002c27fffffffffffffffffffffffffffffffffffffffffffffffffffffffffffffffff848462000183565b905092915050565b6000620002d7826200026f565b9150620002e4836200026f565b9250828202620002f4816200026f565b915082820484148315176200030e576200030d620000ec565b5b5092915050565b61193380620003256000396000f3fe608060405234801561001057600080fd5b506004361061009e5760003560e01c806370a082311161006657806370a0823114610137578063837197b2146101675780638da5cb5b1461018357806395d89b41146101a1578063c7c155e4146101bf5761009e565b806306fdde03146100a35780630a1bb211146100c157806318160ddd146100dd5780631f5ddb4f146100fb578063313ce56714610119575b600080fd5b6100ab6101ef565b6040516100b89190610d53565b60405180910390f35b6100db60048036038101906100d69190610ef4565b610228565b005b6100e56103e3565b6040516100f29190610fee565b60405180910390f35b6101036103e9565b6040516101109190611203565b60405180910390f35b61012161072d565b60405161012e9190611241565b60405180910390f35b610151600480360381019061014c9190611288565b610732565b60405161015e9190610fee565b60405180910390f35b610181600480360381019061017c9190611288565b61074a565b005b61018b61091e565b60405161019891906112c4565b60405180910390f35b6101a9610944565b6040516101b69190610d53565b60405180910390f35b6101d960048036038101906101d49190611288565b61097d565b6040516101e69190611203565b60405180910390f35b6040518060400160405280601081526020017f4365727469666963617465546f6b656e0000000000000000000000000000000081525081565b60006040518060c001604052808781526020018681526020018581526020018481526020018381526020013373ffffffffffffffffffffffffffffffffffffffff168152509050600360003373ffffffffffffffffffffffffffffffffffffffff1673ffffffffffffffffffffffffffffffffffffffff16815260200190815260200160002081908060018154018082558091505060019003906000526020600020906006020160009091909190915060008201518160000190816102ed91906114eb565b50602082015181600101908161030391906114eb565b50604082015181600201908161031991906114eb565b5060608201518160030155608082015181600401908161033991906114eb565b5060a08201518160050160006101000a81548173ffffffffffffffffffffffffffffffffffffffff021916908373ffffffffffffffffffffffffffffffffffffffff16021790555050503373ffffffffffffffffffffffffffffffffffffffff167fbd028fae2ef9d4eb068acb1c28a95ddb7646a62ca7f89a9dbbb93d7ead132cdc8787878787336040516103d3969594939291906115bd565b60405180910390a2505050505050565b60005481565b6060600360003373ffffffffffffffffffffffffffffffffffffffff1673ffffffffffffffffffffffffffffffffffffffff168152602001908152602001600020805480602002602001604051908101604052809291908181526020016000905b8282101561072457838290600052602060002090600602016040518060c001604052908160008201805461047d9061130e565b80601f01602080910402602001604051908101604052809291908181526020018280546104a99061130e565b80156104f65780601f106104cb576101008083540402835291602001916104f6565b820191906000526020600020905b8154815290600101906020018083116104d957829003601f168201915b5050505050815260200160018201805461050f9061130e565b80601f016020809104026020016040519081016040528092919081815260200182805461053b9061130e565b80156105885780601f1061055d57610100808354040283529160200191610588565b820191906000526020600020905b81548152906001019060200180831161056b57829003601f168201915b505050505081526020016002820180546105a19061130e565b80601f01602080910402602001604051908101604052809291908181526020018280546105cd9061130e565b801561061a5780601f106105ef5761010080835404028352916020019161061a565b820191906000526020600020905b8154815290600101906020018083116105fd57829003601f168201915b505050505081526020016003820154815260200160048201805461063d9061130e565b80601f01602080910402602001604051908101604052809291908181526020018280546106699061130e565b80156106b65780601f1061068b576101008083540402835291602001916106b6565b820191906000526020600020905b81548152906001019060200180831161069957829003601f168201915b505050505081526020016005820160009054906101000a900473ffffffffffffffffffffffffffffffffffffffff1673ffffffffffffffffffffffffffffffffffffffff1673ffffffffffffffffffffffffffffffffffffffff16815250508152602001906001019061044a565b50505050905090565b601281565b60016020528060005260406000206000915090505481565b601260ff16600a61075b919061179c565b600261076791906117e7565b600160003373ffffffffffffffffffffffffffffffffffffffff1673ffffffffffffffffffffffffffffffffffffffff1681526020019081526020016000205410156107e8576040517f08c379a00000000000000000000000000000000000000000000000000000000081526004016107df90611875565b60405180910390fd5b6000601260ff16600a6107fb919061179c565b600261080791906117e7565b905080600160003373ffffffffffffffffffffffffffffffffffffffff1673ffffffffffffffffffffffffffffffffffffffff16815260200190815260200160002060008282546108589190611895565b9250508190555080600160008473ffffffffffffffffffffffffffffffffffffffff1673ffffffffffffffffffffffffffffffffffffffff16815260200190815260200160002060008282546108ae91906118c9565b925050819055508173ffffffffffffffffffffffffffffffffffffffff163373ffffffffffffffffffffffffffffffffffffffff167f1b89874203ff7f0bba87c969ada3f32fda22ed38a6706d35199d21280c7811b1836040516109129190610fee565b60405180910390a35050565b600260009054906101000a900473ffffffffffffffffffffffffffffffffffffffff1681565b6040518060400160405280600481526020017f434552540000000000000000000000000000000000000000000000000000000081525081565b6060600360008373ffffffffffffffffffffffffffffffffffffffff1673ffffffffffffffffffffffffffffffffffffffff168152602001908152602001600020805480602002602001604051908101604052809291908181526020016000905b82821015610cb857838290600052602060002090600602016040518060c0016040529081600082018054610a119061130e565b80601f0160208091040260200160405190810160405280929190818152602001828054610a3d9061130e565b8015610a8a5780601f10610a5f57610100808354040283529160200191610a8a565b820191906000526020600020905b815481529060010190602001808311610a6d57829003601f168201915b50505050508152602001600182018054610aa39061130e565b80601f0160208091040260200160405190810160405280929190818152602001828054610acf9061130e565b8015610b1c5780601f10610af157610100808354040283529160200191610b1c565b820191906000526020600020905b815481529060010190602001808311610aff57829003601f168201915b50505050508152602001600282018054610b359061130e565b80601f0160208091040260200160405190810160405280929190818152602001828054610b619061130e565b8015610bae5780601f10610b8357610100808354040283529160200191610bae565b820191906000526020600020905b815481529060010190602001808311610b9157829003601f168201915b5050505050815260200160038201548152602001600482018054610bd19061130e565b80601f0160208091040260200160405190810160405280929190818152602001828054610bfd9061130e565b8015610c4a5780601f10610c1f57610100808354040283529160200191610c4a565b820191906000526020600020905b815481529060010190602001808311610c2d57829003601f168201915b505050505081526020016005820160009054906101000a900473ffffffffffffffffffffffffffffffffffffffff1673ffffffffffffffffffffffffffffffffffffffff1673ffffffffffffffffffffffffffffffffffffffff1681525050815260200190600101906109de565b505050509050919050565b600081519050919050565b600082825260208201905092915050565b60005b83811015610cfd578082015181840152602081019050610ce2565b60008484015250505050565b6000601f19601f8301169050919050565b6000610d2582610cc3565b610d2f8185610cce565b9350610d3f818560208601610cdf565b610d4881610d09565b840191505092915050565b60006020820190508181036000830152610d6d8184610d1a565b905092915050565b6000604051905090565b600080fd5b600080fd5b600080fd5b600080fd5b7f4e487b7100000000000000000000000000000000000000000000000000000000600052604160045260246000fd5b610dcb82610d09565b810181811067ffffffffffffffff82111715610dea57610de9610d93565b5b80604052505050565b6000610dfd610d75565b9050610e098282610dc2565b919050565b600067ffffffffffffffff821115610e2957610e28610d93565b5b610e3282610d09565b9050602081019050919050565b82818337600083830152505050565b6000610e61610e5c84610e0e565b610df3565b905082815260208101848484011115610e7d57610e7c610d8e565b5b610e88848285610e3f565b509392505050565b600082601f830112610ea557610ea4610d89565b5b8135610eb5848260208601610e4e565b91505092915050565b6000819050919050565b610ed181610ebe565b8114610edc57600080fd5b50565b600081359050610eee81610ec8565b92915050565b600080600080600060a08688031215610f1057610f0f610d7f565b5b600086013567ffffffffffffffff811115610f2e57610f2d610d84565b5b610f3a88828901610e90565b955050602086013567ffffffffffffffff811115610f5b57610f5a610d84565b5b610f6788828901610e90565b945050604086013567ffffffffffffffff811115610f8857610f87610d84565b5b610f9488828901610e90565b9350506060610fa588828901610edf565b925050608086013567ffffffffffffffff811115610fc657610fc5610d84565b5b610fd288828901610e90565b9150509295509295909350565b610fe881610ebe565b82525050565b60006020820190506110036000830184610fdf565b92915050565b600081519050919050565b600082825260208201905092915050565b6000819050602082019050919050565b600082825260208201905092915050565b600061105182610cc3565b61105b8185611035565b935061106b818560208601610cdf565b61107481610d09565b840191505092915050565b61108881610ebe565b82525050565b600073ffffffffffffffffffffffffffffffffffffffff82169050919050565b60006110b98261108e565b9050919050565b6110c9816110ae565b82525050565b600060c08301600083015184820360008601526110ec8282611046565b915050602083015184820360208601526111068282611046565b915050604083015184820360408601526111208282611046565b9150506060830151611135606086018261107f565b506080830151848203608086015261114d8282611046565b91505060a083015161116260a08601826110c0565b508091505092915050565b600061117983836110cf565b905092915050565b6000602082019050919050565b600061119982611009565b6111a38185611014565b9350836020820285016111b585611025565b8060005b858110156111f157848403895281516111d2858261116d565b94506111dd83611181565b925060208a019950506001810190506111b9565b50829750879550505050505092915050565b6000602082019050818103600083015261121d818461118e565b905092915050565b600060ff82169050919050565b61123b81611225565b82525050565b60006020820190506112566000830184611232565b92915050565b611265816110ae565b811461127057600080fd5b50565b6000813590506112828161125c565b92915050565b60006020828403121561129e5761129d610d7f565b5b60006112ac84828501611273565b91505092915050565b6112be816110ae565b82525050565b60006020820190506112d960008301846112b5565b92915050565b7f4e487b7100000000000000000000000000000000000000000000000000000000600052602260045260246000fd5b6000600282049050600182168061132657607f821691505b602082108103611339576113386112df565b5b50919050565b60008190508160005260206000209050919050565b60006020601f8301049050919050565b600082821b905092915050565b6000600883026113a17fffffffffffffffffffffffffffffffffffffffffffffffffffffffffffffffff82611364565b6113ab8683611364565b95508019841693508086168417925050509392505050565b6000819050919050565b60006113e86113e36113de84610ebe565b6113c3565b610ebe565b9050919050565b6000819050919050565b611402836113cd565b61141661140e826113ef565b848454611371565b825550505050565b600090565b61142b61141e565b6114368184846113f9565b505050565b5b8181101561145a5761144f600082611423565b60018101905061143c565b5050565b601f82111561149f576114708161133f565b61147984611354565b81016020851015611488578190505b61149c61149485611354565b83018261143b565b50505b505050565b600082821c905092915050565b60006114c2600019846008026114a4565b1980831691505092915050565b60006114db83836114b1565b9150826002028217905092915050565b6114f482610cc3565b67ffffffffffffffff81111561150d5761150c610d93565b5b611517825461130e565b61152282828561145e565b600060209050601f8311600181146115555760008415611543578287015190505b61154d85826114cf565b8655506115b5565b601f1984166115638661133f565b60005b8281101561158b57848901518255600182019150602085019450602081019050611566565b868310156115a857848901516115a4601f8916826114b1565b8355505b6001600288020188555050505b505050505050565b600060c08201905081810360008301526115d78189610d1a565b905081810360208301526115eb8188610d1a565b905081810360408301526115ff8187610d1a565b905061160e6060830186610fdf565b81810360808301526116208185610d1a565b905061162f60a08301846112b5565b979650505050505050565b7f4e487b7100000000000000000000000000000000000000000000000000000000600052601160045260246000fd5b60008160011c9050919050565b6000808291508390505b60018511156116c05780860481111561169c5761169b61163a565b5b60018516156116ab5780820291505b80810290506116b985611669565b9450611680565b94509492505050565b6000826116d95760019050611795565b816116e75760009050611795565b81600181146116fd576002811461170757611736565b6001915050611795565b60ff8411156117195761171861163a565b5b8360020a9150848211156117305761172f61163a565b5b50611795565b5060208310610133831016604e8410600b841016171561176b5782820a9050838111156117665761176561163a565b5b611795565b6117788484846001611676565b9250905081840481111561178f5761178e61163a565b5b81810290505b9392505050565b60006117a782610ebe565b91506117b283610ebe565b92506117df7fffffffffffffffffffffffffffffffffffffffffffffffffffffffffffffffff84846116c9565b905092915050565b60006117f282610ebe565b91506117fd83610ebe565b925082820261180b81610ebe565b915082820484148315176118225761182161163a565b5b5092915050565b7f496e73756666696369656e742062616c616e6365000000000000000000000000600082015250565b600061185f601483610cce565b915061186a82611829565b602082019050919050565b6000602082019050818103600083015261188e81611852565b9050919050565b60006118a082610ebe565b91506118ab83610ebe565b92508282039050818111156118c3576118c261163a565b5b92915050565b60006118d482610ebe565b91506118df83610ebe565b92508282019050808211156118f7576118f661163a565b5b9291505056fea2646970667358221220e8efd5b362edebc20783ae23d8fca2221af037933e7c867e610ad944831b955c64736f6c63430008140033",
          "opcodes": "PUSH1 0x80 PUSH1 0x40 MSTORE CALLVALUE DUP1 ISZERO PUSH3 0x11 JUMPI PUSH1 0x0 DUP1 REVERT JUMPDEST POP CALLER PUSH1 0x2 PUSH1 0x0 PUSH2 0x100 EXP DUP2 SLOAD DUP2 PUSH20 0xFFFFFFFFFFFFFFFFFFFFFFFFFFFFFFFFFFFFFFFF MUL NOT AND SWAP1 DUP4 PUSH20 0xFFFFFFFFFFFFFFFFFFFFFFFFFFFFFFFFFFFFFFFF AND MUL OR SWAP1 SSTORE POP PUSH1 0x0 PUSH1 0x12 PUSH1 0xFF AND PUSH1 0xA PUSH3 0x68 SWAP2 SWAP1 PUSH3 0x279 JUMP JUMPDEST PUSH1 0x64 PUSH3 0x76 SWAP2 SWAP1 PUSH3 0x2CA JUMP JUMPDEST SWAP1 POP DUP1 PUSH1 0x0 DUP2 SWAP1 SSTORE POP DUP1 PUSH1 0x1 PUSH1 0x0 PUSH1 0x2 PUSH1 0x0 SWAP1 SLOAD SWAP1 PUSH2 0x100 EXP SWAP1 DIV PUSH20 0xFFFFFFFFFFFFFFFFFFFFFFFFFFFFFFFFFFFFFFFF AND PUSH20 0xFFFFFFFFFFFFFFFFFFFFFFFFFFFFFFFFFFFFFFFF AND PUSH20 0xFFFFFFFFFFFFFFFFFFFFFFFFFFFFFFFFFFFFFFFF AND DUP2 MSTORE PUSH1 0x20 ADD SWAP1 DUP2 MSTORE PUSH1 0x20 ADD PUSH1 0x0 KECCAK256 DUP2 SWAP1 SSTORE POP POP PUSH3 0x315 JUMP JUMPDEST PUSH32 0x4E487B7100000000000000000000000000000000000000000000000000000000 PUSH1 0x0 MSTORE PUSH1 0x11 PUSH1 0x4 MSTORE PUSH1 0x24 PUSH1 0x0 REVERT JUMPDEST PUSH1 0x0 DUP2 PUSH1 0x1 SHR SWAP1 POP SWAP2 SWAP1 POP JUMP JUMPDEST PUSH1 0x0 DUP1 DUP3 SWAP2 POP DUP4 SWAP1 POP JUMPDEST PUSH1 0x1 DUP6 GT ISZERO PUSH3 0x17A JUMPI DUP1 DUP7 DIV DUP2 GT ISZERO PUSH3 0x152 JUMPI PUSH3 0x151 PUSH3 0xEC JUMP JUMPDEST JUMPDEST PUSH1 0x1 DUP6 AND ISZERO PUSH3 0x162 JUMPI DUP1 DUP3 MUL SWAP2 POP JUMPDEST DUP1 DUP2 MUL SWAP1 POP PUSH3 0x172 DUP6 PUSH3 0x11B JUMP JUMPDEST SWAP5 POP PUSH3 0x132 JUMP JUMPDEST SWAP5 POP SWAP5 SWAP3 POP POP POP JUMP JUMPDEST PUSH1 0x0 DUP3 PUSH3 0x195 JUMPI PUSH1 0x1 SWAP1 POP PUSH3 0x268 JUMP JUMPDEST DUP2 PUSH3 0x1A5 JUMPI PUSH1 0x0 SWAP1 POP PUSH3 0x268 JUMP JUMPDEST DUP2 PUSH1 0x1 DUP2 EQ PUSH3 0x1BE JUMPI PUSH1 0x2 DUP2 EQ PUSH3 0x1C9 JUMPI PUSH3 0x1FF JUMP JUMPDEST PUSH1 0x1 SWAP2 POP POP PUSH3 0x268 JUMP JUMPDEST PUSH1 0xFF DUP5 GT ISZERO PUSH3 0x1DE JUMPI PUSH3 0x1DD PUSH3 0xEC JUMP JUMPDEST JUMPDEST DUP4 PUSH1 0x2 EXP SWAP2 POP DUP5 DUP3 GT ISZERO PUSH3 0x1F8 JUMPI PUSH3 0x1F7 PUSH3 0xEC JUMP JUMPDEST JUMPDEST POP PUSH3 0x268 JUMP JUMPDEST POP PUSH1 0x20 DUP4 LT PUSH2 0x133 DUP4 LT AND PUSH1 0x4E DUP5 LT PUSH1 0xB DUP5 LT AND OR ISZERO PUSH3 0x239 JUMPI DUP3 DUP3 EXP SWAP1 POP DUP4 DUP2 GT ISZERO PUSH3 0x233 JUMPI PUSH3 0x232 PUSH3 0xEC JUMP JUMPDEST JUMPDEST PUSH3 0x268 JUMP JUMPDEST PUSH3 0x248 DUP5 DUP5 DUP5 PUSH1 0x1 PUSH3 0x128 JUMP JUMPDEST SWAP3 POP SWAP1 POP DUP2 DUP5 DIV DUP2 GT ISZERO PUSH3 0x262 JUMPI PUSH3 0x261 PUSH3 0xEC JUMP JUMPDEST JUMPDEST DUP2 DUP2 MUL SWAP1 POP JUMPDEST SWAP4 SWAP3 POP POP POP JUMP JUMPDEST PUSH1 0x0 DUP2 SWAP1 POP SWAP2 SWAP1 POP JUMP JUMPDEST PUSH1 0x0 PUSH3 0x286 DUP3 PUSH3 0x26F JUMP JUMPDEST SWAP2 POP PUSH3 0x293 DUP4 PUSH3 0x26F JUMP JUMPDEST SWAP3 POP PUSH3 0x2C2 PUSH32 0xFFFFFFFFFFFFFFFFFFFFFFFFFFFFFFFFFFFFFFFFFFFFFFFFFFFFFFFFFFFFFFFF DUP5 DUP5 PUSH3 0x183 JUMP JUMPDEST SWAP1 POP SWAP3 SWAP2 POP POP JUMP JUMPDEST PUSH1 0x0 PUSH3 0x2D7 DUP3 PUSH3 0x26F JUMP JUMPDEST SWAP2 POP PUSH3 0x2E4 DUP4 PUSH3 0x26F JUMP JUMPDEST SWAP3 POP DUP3 DUP3 MUL PUSH3 0x2F4 DUP2 PUSH3 0x26F JUMP JUMPDEST SWAP2 POP DUP3 DUP3 DIV DUP5 EQ DUP4 ISZERO OR PUSH3 0x30E JUMPI PUSH3 0x30D PUSH3 0xEC JUMP JUMPDEST JUMPDEST POP SWAP3 SWAP2 POP POP JUMP JUMPDEST PUSH2 0x1933 DUP1 PUSH3 0x325 PUSH1 0x0 CODECOPY PUSH1 0x0 RETURN INVALID PUSH1 0x80 PUSH1 0x40 MSTORE CALLVALUE DUP1 ISZERO PUSH2 0x10 JUMPI PUSH1 0x0 DUP1 REVERT JUMPDEST POP PUSH1 0x4 CALLDATASIZE LT PUSH2 0x9E JUMPI PUSH1 0x0 CALLDATALOAD PUSH1 0xE0 SHR DUP1 PUSH4 0x70A08231 GT PUSH2 0x66 JUMPI DUP1 PUSH4 0x70A08231 EQ PUSH2 0x137 JUMPI DUP1 PUSH4 0x837197B2 EQ PUSH2 0x167 JUMPI DUP1 PUSH4 0x8DA5CB5B EQ PUSH2 0x183 JUMPI DUP1 PUSH4 0x95D89B41 EQ PUSH2 0x1A1 JUMPI DUP1 PUSH4 0xC7C155E4 EQ PUSH2 0x1BF JUMPI PUSH2 0x9E JUMP JUMPDEST DUP1 PUSH4 0x6FDDE03 EQ PUSH2 0xA3 JUMPI DUP1 PUSH4 0xA1BB211 EQ PUSH2 0xC1 JUMPI DUP1 PUSH4 0x18160DDD EQ PUSH2 0xDD JUMPI DUP1 PUSH4 0x1F5DDB4F EQ PUSH2 0xFB JUMPI DUP1 PUSH4 0x313CE567 EQ PUSH2 0x119 JUMPI JUMPDEST PUSH1 0x0 DUP1 REVERT JUMPDEST PUSH2 0xAB PUSH2 0x1EF JUMP JUMPDEST PUSH1 0x40 MLOAD PUSH2 0xB8 SWAP2 SWAP1 PUSH2 0xD53 JUMP JUMPDEST PUSH1 0x40 MLOAD DUP1 SWAP2 SUB SWAP1 RETURN JUMPDEST PUSH2 0xDB PUSH1 0x4 DUP1 CALLDATASIZE SUB DUP2 ADD SWAP1 PUSH2 0xD6 SWAP2 SWAP1 PUSH2 0xEF4 JUMP JUMPDEST PUSH2 0x228 JUMP JUMPDEST STOP JUMPDEST PUSH2 0xE5 PUSH2 0x3E3 JUMP JUMPDEST PUSH1 0x40 MLOAD PUSH2 0xF2 SWAP2 SWAP1 PUSH2 0xFEE JUMP JUMPDEST PUSH1 0x40 MLOAD DUP1 SWAP2 SUB SWAP1 RETURN JUMPDEST PUSH2 0x103 PUSH2 0x3E9 JUMP JUMPDEST PUSH1 0x40 MLOAD PUSH2 0x110 SWAP2 SWAP1 PUSH2 0x1203 JUMP JUMPDEST PUSH1 0x40 MLOAD DUP1 SWAP2 SUB SWAP1 RETURN JUMPDEST PUSH2 0x121 PUSH2 0x72D JUMP JUMPDEST PUSH1 0x40 MLOAD PUSH2 0x12E SWAP2 SWAP1 PUSH2 0x1241 JUMP JUMPDEST PUSH1 0x40 MLOAD DUP1 SWAP2 SUB SWAP1 RETURN JUMPDEST PUSH2 0x151 PUSH1 0x4 DUP1 CALLDATASIZE SUB DUP2 ADD SWAP1 PUSH2 0x14C SWAP2 SWAP1 PUSH2 0x1288 JUMP JUMPDEST PUSH2 0x732 JUMP JUMPDEST PUSH1 0x40 MLOAD PUSH2 0x15E SWAP2 SWAP1 PUSH2 0xFEE JUMP JUMPDEST PUSH1 0x40 MLOAD DUP1 SWAP2 SUB SWAP1 RETURN JUMPDEST PUSH2 0x181 PUSH1 0x4 DUP1 CALLDATASIZE SUB DUP2 ADD SWAP1 PUSH2 0x17C SWAP2 SWAP1 PUSH2 0x1288 JUMP JUMPDEST PUSH2 0x74A JUMP JUMPDEST STOP JUMPDEST PUSH2 0x18B PUSH2 0x91E JUMP JUMPDEST PUSH1 0x40 MLOAD PUSH2 0x198 SWAP2 SWAP1 PUSH2 0x12C4 JUMP JUMPDEST PUSH1 0x40 MLOAD DUP1 SWAP2 SUB SWAP1 RETURN JUMPDEST PUSH2 0x1A9 PUSH2 0x944 JUMP JUMPDEST PUSH1 0x40 MLOAD PUSH2 0x1B6 SWAP2 SWAP1 PUSH2 0xD53 JUMP JUMPDEST PUSH1 0x40 MLOAD DUP1 SWAP2 SUB SWAP1 RETURN JUMPDEST PUSH2 0x1D9 PUSH1 0x4 DUP1 CALLDATASIZE SUB DUP2 ADD SWAP1 PUSH2 0x1D4 SWAP2 SWAP1 PUSH2 0x1288 JUMP JUMPDEST PUSH2 0x97D JUMP JUMPDEST PUSH1 0x40 MLOAD PUSH2 0x1E6 SWAP2 SWAP1 PUSH2 0x1203 JUMP JUMPDEST PUSH1 0x40 MLOAD DUP1 SWAP2 SUB SWAP1 RETURN JUMPDEST PUSH1 0x40 MLOAD DUP1 PUSH1 0x40 ADD PUSH1 0x40 MSTORE DUP1 PUSH1 0x10 DUP2 MSTORE PUSH1 0x20 ADD PUSH32 0x4365727469666963617465546F6B656E00000000000000000000000000000000 DUP2 MSTORE POP DUP2 JUMP JUMPDEST PUSH1 0x0 PUSH1 0x40 MLOAD DUP1 PUSH1 0xC0 ADD PUSH1 0x40 MSTORE DUP1 DUP8 DUP2 MSTORE PUSH1 0x20 ADD DUP7 DUP2 MSTORE PUSH1 0x20 ADD DUP6 DUP2 MSTORE PUSH1 0x20 ADD DUP5 DUP2 MSTORE PUSH1 0x20 ADD DUP4 DUP2 MSTORE PUSH1 0x20 ADD CALLER PUSH20 0xFFFFFFFFFFFFFFFFFFFFFFFFFFFFFFFFFFFFFFFF AND DUP2 MSTORE POP SWAP1 POP PUSH1 0x3 PUSH1 0x0 CALLER PUSH20 0xFFFFFFFFFFFFFFFFFFFFFFFFFFFFFFFFFFFFFFFF AND PUSH20 0xFFFFFFFFFFFFFFFFFFFFFFFFFFFFFFFFFFFFFFFF AND DUP2 MSTORE PUSH1 0x20 ADD SWAP1 DUP2 MSTORE PUSH1 0x20 ADD PUSH1 0x0 KECCAK256 DUP2 SWAP1 DUP1 PUSH1 0x1 DUP2 SLOAD ADD DUP1 DUP3 SSTORE DUP1 SWAP2 POP POP PUSH1 0x1 SWAP1 SUB SWAP1 PUSH1 0x0 MSTORE PUSH1 0x20 PUSH1 0x0 KECCAK256 SWAP1 PUSH1 0x6 MUL ADD PUSH1 0x0 SWAP1 SWAP2 SWAP1 SWAP2 SWAP1 SWAP2 POP PUSH1 0x0 DUP3 ADD MLOAD DUP2 PUSH1 0x0 ADD SWAP1 DUP2 PUSH2 0x2ED SWAP2 SWAP1 PUSH2 0x14EB JUMP JUMPDEST POP PUSH1 0x20 DUP3 ADD MLOAD DUP2 PUSH1 0x1 ADD SWAP1 DUP2 PUSH2 0x303 SWAP2 SWAP1 PUSH2 0x14EB JUMP JUMPDEST POP PUSH1 0x40 DUP3 ADD MLOAD DUP2 PUSH1 0x2 ADD SWAP1 DUP2 PUSH2 0x319 SWAP2 SWAP1 PUSH2 0x14EB JUMP JUMPDEST POP PUSH1 0x60 DUP3 ADD MLOAD DUP2 PUSH1 0x3 ADD SSTORE PUSH1 0x80 DUP3 ADD MLOAD DUP2 PUSH1 0x4 ADD SWAP1 DUP2 PUSH2 0x339 SWAP2 SWAP1 PUSH2 0x14EB JUMP JUMPDEST POP PUSH1 0xA0 DUP3 ADD MLOAD DUP2 PUSH1 0x5 ADD PUSH1 0x0 PUSH2 0x100 EXP DUP2 SLOAD DUP2 PUSH20 0xFFFFFFFFFFFFFFFFFFFFFFFFFFFFFFFFFFFFFFFF MUL NOT AND SWAP1 DUP4 PUSH20 0xFFFFFFFFFFFFFFFFFFFFFFFFFFFFFFFFFFFFFFFF AND MUL OR SWAP1 SSTORE POP POP POP CALLER PUSH20 0xFFFFFFFFFFFFFFFFFFFFFFFFFFFFFFFFFFFFFFFF AND PUSH32 0xBD028FAE2EF9D4EB068ACB1C28A95DDB7646A62CA7F89A9DBBB93D7EAD132CDC DUP8 DUP8 DUP8 DUP8 DUP8 CALLER PUSH1 0x40 MLOAD PUSH2 0x3D3 SWAP7 SWAP6 SWAP5 SWAP4 SWAP3 SWAP2 SWAP1 PUSH2 0x15BD JUMP JUMPDEST PUSH1 0x40 MLOAD DUP1 SWAP2 SUB SWAP1 LOG2 POP POP POP POP POP POP JUMP JUMPDEST PUSH1 0x0 SLOAD DUP2 JUMP JUMPDEST PUSH1 0x60 PUSH1 0x3 PUSH1 0x0 CALLER PUSH20 0xFFFFFFFFFFFFFFFFFFFFFFFFFFFFFFFFFFFFFFFF AND PUSH20 0xFFFFFFFFFFFFFFFFFFFFFFFFFFFFFFFFFFFFFFFF AND DUP2 MSTORE PUSH1 0x20 ADD SWAP1 DUP2 MSTORE PUSH1 0x20 ADD PUSH1 0x0 KECCAK256 DUP1 SLOAD DUP1 PUSH1 0x20 MUL PUSH1 0x20 ADD PUSH1 0x40 MLOAD SWAP1 DUP2 ADD PUSH1 0x40 MSTORE DUP1 SWAP3 SWAP2 SWAP1 DUP2 DUP2 MSTORE PUSH1 0x20 ADD PUSH1 0x0 SWAP1 JUMPDEST DUP3 DUP3 LT ISZERO PUSH2 0x724 JUMPI DUP4 DUP3 SWAP1 PUSH1 0x0 MSTORE PUSH1 0x20 PUSH1 0x0 KECCAK256 SWAP1 PUSH1 0x6 MUL ADD PUSH1 0x40 MLOAD DUP1 PUSH1 0xC0 ADD PUSH1 0x40 MSTORE SWAP1 DUP2 PUSH1 0x0 DUP3 ADD DUP1 SLOAD PUSH2 0x47D SWAP1 PUSH2 0x130E JUMP JUMPDEST DUP1 PUSH1 0x1F ADD PUSH1 0x20 DUP1 SWAP2 DIV MUL PUSH1 0x20 ADD PUSH1 0x40 MLOAD SWAP1 DUP2 ADD PUSH1 0x40 MSTORE DUP1 SWAP3 SWAP2 SWAP1 DUP2 DUP2 MSTORE PUSH1 0x20 ADD DUP3 DUP1 SLOAD PUSH2 0x4A9 SWAP1 PUSH2 0x130E JUMP JUMPDEST DUP1 ISZERO PUSH2 0x4F6 JUMPI DUP1 PUSH1 0x1F LT PUSH2 0x4CB JUMPI PUSH2 0x100 DUP1 DUP4 SLOAD DIV MUL DUP4 MSTORE SWAP2 PUSH1 0x20 ADD SWAP2 PUSH2 0x4F6 JUMP JUMPDEST DUP3 ADD SWAP2 SWAP1 PUSH1 0x0 MSTORE PUSH1 0x20 PUSH1 0x0 KECCAK256 SWAP1 JUMPDEST DUP2 SLOAD DUP2 MSTORE SWAP1 PUSH1 0x1 ADD SWAP1 PUSH1 0x20 ADD DUP1 DUP4 GT PUSH2 0x4D9 JUMPI DUP3 SWAP1 SUB PUSH1 0x1F AND DUP3 ADD SWAP2 JUMPDEST POP POP POP POP POP DUP2 MSTORE PUSH1 0x20 ADD PUSH1 0x1 DUP3 ADD DUP1 SLOAD PUSH2 0x50F SWAP1 PUSH2 0x130E JUMP JUMPDEST DUP1 PUSH1 0x1F ADD PUSH1 0x20 DUP1 SWAP2 DIV MUL PUSH1 0x20 ADD PUSH1 0x40 MLOAD SWAP1 DUP2 ADD PUSH1 0x40 MSTORE DUP1 SWAP3 SWAP2 SWAP1 DUP2 DUP2 MSTORE PUSH1 0x20 ADD DUP3 DUP1 SLOAD PUSH2 0x53B SWAP1 PUSH2 0x130E JUMP JUMPDEST DUP1 ISZERO PUSH2 0x588 JUMPI DUP1 PUSH1 0x1F LT PUSH2 0x55D JUMPI PUSH2 0x100 DUP1 DUP4 SLOAD DIV MUL DUP4 MSTORE SWAP2 PUSH1 0x20 ADD SWAP2 PUSH2 0x588 JUMP JUMPDEST DUP3 ADD SWAP2 SWAP1 PUSH1 0x0 MSTORE PUSH1 0x20 PUSH1 0x0 KECCAK256 SWAP1 JUMPDEST DUP2 SLOAD DUP2 MSTORE SWAP1 PUSH1 0x1 ADD SWAP1 PUSH1 0x20 ADD DUP1 DUP4 GT PUSH2 0x56B JUMPI DUP3 SWAP1 SUB PUSH1 0x1F AND DUP3 ADD SWAP2 JUMPDEST POP POP POP POP POP DUP2 MSTORE PUSH1 0x20 ADD PUSH1 0x2 DUP3 ADD DUP1 SLOAD PUSH2 0x5A1 SWAP1 PUSH2 0x130E JUMP JUMPDEST DUP1 PUSH1 0x1F ADD PUSH1 0x20 DUP1 SWAP2 DIV MUL PUSH1 0x20 ADD PUSH1 0x40 MLOAD SWAP1 DUP2 ADD PUSH1 0x40 MSTORE DUP1 SWAP3 SWAP2 SWAP1 DUP2 DUP2 MSTORE PUSH1 0x20 ADD DUP3 DUP1 SLOAD PUSH2 0x5CD SWAP1 PUSH2 0x130E JUMP JUMPDEST DUP1 ISZERO PUSH2 0x61A JUMPI DUP1 PUSH1 0x1F LT PUSH2 0x5EF JUMPI PUSH2 0x100 DUP1 DUP4 SLOAD DIV MUL DUP4 MSTORE SWAP2 PUSH1 0x20 ADD SWAP2 PUSH2 0x61A JUMP JUMPDEST DUP3 ADD SWAP2 SWAP1 PUSH1 0x0 MSTORE PUSH1 0x20 PUSH1 0x0 KECCAK256 SWAP1 JUMPDEST DUP2 SLOAD DUP2 MSTORE SWAP1 PUSH1 0x1 ADD SWAP1 PUSH1 0x20 ADD DUP1 DUP4 GT PUSH2 0x5FD JUMPI DUP3 SWAP1 SUB PUSH1 0x1F AND DUP3 ADD SWAP2 JUMPDEST POP POP POP POP POP DUP2 MSTORE PUSH1 0x20 ADD PUSH1 0x3 DUP3 ADD SLOAD DUP2 MSTORE PUSH1 0x20 ADD PUSH1 0x4 DUP3 ADD DUP1 SLOAD PUSH2 0x63D SWAP1 PUSH2 0x130E JUMP JUMPDEST DUP1 PUSH1 0x1F ADD PUSH1 0x20 DUP1 SWAP2 DIV MUL PUSH1 0x20 ADD PUSH1 0x40 MLOAD SWAP1 DUP2 ADD PUSH1 0x40 MSTORE DUP1 SWAP3 SWAP2 SWAP1 DUP2 DUP2 MSTORE PUSH1 0x20 ADD DUP3 DUP1 SLOAD PUSH2 0x669 SWAP1 PUSH2 0x130E JUMP JUMPDEST DUP1 ISZERO PUSH2 0x6B6 JUMPI DUP1 PUSH1 0x1F LT PUSH2 0x68B JUMPI PUSH2 0x100 DUP1 DUP4 SLOAD DIV MUL DUP4 MSTORE SWAP2 PUSH1 0x20 ADD SWAP2 PUSH2 0x6B6 JUMP JUMPDEST DUP3 ADD SWAP2 SWAP1 PUSH1 0x0 MSTORE PUSH1 0x20 PUSH1 0x0 KECCAK256 SWAP1 JUMPDEST DUP2 SLOAD DUP2 MSTORE SWAP1 PUSH1 0x1 ADD SWAP1 PUSH1 0x20 ADD DUP1 DUP4 GT PUSH2 0x699 JUMPI DUP3 SWAP1 SUB PUSH1 0x1F AND DUP3 ADD SWAP2 JUMPDEST POP POP POP POP POP DUP2 MSTORE PUSH1 0x20 ADD PUSH1 0x5 DUP3 ADD PUSH1 0x0 SWAP1 SLOAD SWAP1 PUSH2 0x100 EXP SWAP1 DIV PUSH20 0xFFFFFFFFFFFFFFFFFFFFFFFFFFFFFFFFFFFFFFFF AND PUSH20 0xFFFFFFFFFFFFFFFFFFFFFFFFFFFFFFFFFFFFFFFF AND PUSH20 0xFFFFFFFFFFFFFFFFFFFFFFFFFFFFFFFFFFFFFFFF AND DUP2 MSTORE POP POP DUP2 MSTORE PUSH1 0x20 ADD SWAP1 PUSH1 0x1 ADD SWAP1 PUSH2 0x44A JUMP JUMPDEST POP POP POP POP SWAP1 POP SWAP1 JUMP JUMPDEST PUSH1 0x12 DUP2 JUMP JUMPDEST PUSH1 0x1 PUSH1 0x20 MSTORE DUP1 PUSH1 0x0 MSTORE PUSH1 0x40 PUSH1 0x0 KECCAK256 PUSH1 0x0 SWAP2 POP SWAP1 POP SLOAD DUP2 JUMP JUMPDEST PUSH1 0x12 PUSH1 0xFF AND PUSH1 0xA PUSH2 0x75B SWAP2 SWAP1 PUSH2 0x179C JUMP JUMPDEST PUSH1 0x2 PUSH2 0x767 SWAP2 SWAP1 PUSH2 0x17E7 JUMP JUMPDEST PUSH1 0x1 PUSH1 0x0 CALLER PUSH20 0xFFFFFFFFFFFFFFFFFFFFFFFFFFFFFFFFFFFFFFFF AND PUSH20 0xFFFFFFFFFFFFFFFFFFFFFFFFFFFFFFFFFFFFFFFF AND DUP2 MSTORE PUSH1 0x20 ADD SWAP1 DUP2 MSTORE PUSH1 0x20 ADD PUSH1 0x0 KECCAK256 SLOAD LT ISZERO PUSH2 0x7E8 JUMPI PUSH1 0x40 MLOAD PUSH32 0x8C379A000000000000000000000000000000000000000000000000000000000 DUP2 MSTORE PUSH1 0x4 ADD PUSH2 0x7DF SWAP1 PUSH2 0x1875 JUMP JUMPDEST PUSH1 0x40 MLOAD DUP1 SWAP2 SUB SWAP1 REVERT JUMPDEST PUSH1 0x0 PUSH1 0x12 PUSH1 0xFF AND PUSH1 0xA PUSH2 0x7FB SWAP2 SWAP1 PUSH2 0x179C JUMP JUMPDEST PUSH1 0x2 PUSH2 0x807 SWAP2 SWAP1 PUSH2 0x17E7 JUMP JUMPDEST SWAP1 POP DUP1 PUSH1 0x1 PUSH1 0x0 CALLER PUSH20 0xFFFFFFFFFFFFFFFFFFFFFFFFFFFFFFFFFFFFFFFF AND PUSH20 0xFFFFFFFFFFFFFFFFFFFFFFFFFFFFFFFFFFFFFFFF AND DUP2 MSTORE PUSH1 0x20 ADD SWAP1 DUP2 MSTORE PUSH1 0x20 ADD PUSH1 0x0 KECCAK256 PUSH1 0x0 DUP3 DUP3 SLOAD PUSH2 0x858 SWAP2 SWAP1 PUSH2 0x1895 JUMP JUMPDEST SWAP3 POP POP DUP2 SWAP1 SSTORE POP DUP1 PUSH1 0x1 PUSH1 0x0 DUP5 PUSH20 0xFFFFFFFFFFFFFFFFFFFFFFFFFFFFFFFFFFFFFFFF AND PUSH20 0xFFFFFFFFFFFFFFFFFFFFFFFFFFFFFFFFFFFFFFFF AND DUP2 MSTORE PUSH1 0x20 ADD SWAP1 DUP2 MSTORE PUSH1 0x20 ADD PUSH1 0x0 KECCAK256 PUSH1 0x0 DUP3 DUP3 SLOAD PUSH2 0x8AE SWAP2 SWAP1 PUSH2 0x18C9 JUMP JUMPDEST SWAP3 POP POP DUP2 SWAP1 SSTORE POP DUP2 PUSH20 0xFFFFFFFFFFFFFFFFFFFFFFFFFFFFFFFFFFFFFFFF AND CALLER PUSH20 0xFFFFFFFFFFFFFFFFFFFFFFFFFFFFFFFFFFFFFFFF AND PUSH32 0x1B89874203FF7F0BBA87C969ADA3F32FDA22ED38A6706D35199D21280C7811B1 DUP4 PUSH1 0x40 MLOAD PUSH2 0x912 SWAP2 SWAP1 PUSH2 0xFEE JUMP JUMPDEST PUSH1 0x40 MLOAD DUP1 SWAP2 SUB SWAP1 LOG3 POP POP JUMP JUMPDEST PUSH1 0x2 PUSH1 0x0 SWAP1 SLOAD SWAP1 PUSH2 0x100 EXP SWAP1 DIV PUSH20 0xFFFFFFFFFFFFFFFFFFFFFFFFFFFFFFFFFFFFFFFF AND DUP2 JUMP JUMPDEST PUSH1 0x40 MLOAD DUP1 PUSH1 0x40 ADD PUSH1 0x40 MSTORE DUP1 PUSH1 0x4 DUP2 MSTORE PUSH1 0x20 ADD PUSH32 0x4345525400000000000000000000000000000000000000000000000000000000 DUP2 MSTORE POP DUP2 JUMP JUMPDEST PUSH1 0x60 PUSH1 0x3 PUSH1 0x0 DUP4 PUSH20 0xFFFFFFFFFFFFFFFFFFFFFFFFFFFFFFFFFFFFFFFF AND PUSH20 0xFFFFFFFFFFFFFFFFFFFFFFFFFFFFFFFFFFFFFFFF AND DUP2 MSTORE PUSH1 0x20 ADD SWAP1 DUP2 MSTORE PUSH1 0x20 ADD PUSH1 0x0 KECCAK256 DUP1 SLOAD DUP1 PUSH1 0x20 MUL PUSH1 0x20 ADD PUSH1 0x40 MLOAD SWAP1 DUP2 ADD PUSH1 0x40 MSTORE DUP1 SWAP3 SWAP2 SWAP1 DUP2 DUP2 MSTORE PUSH1 0x20 ADD PUSH1 0x0 SWAP1 JUMPDEST DUP3 DUP3 LT ISZERO PUSH2 0xCB8 JUMPI DUP4 DUP3 SWAP1 PUSH1 0x0 MSTORE PUSH1 0x20 PUSH1 0x0 KECCAK256 SWAP1 PUSH1 0x6 MUL ADD PUSH1 0x40 MLOAD DUP1 PUSH1 0xC0 ADD PUSH1 0x40 MSTORE SWAP1 DUP2 PUSH1 0x0 DUP3 ADD DUP1 SLOAD PUSH2 0xA11 SWAP1 PUSH2 0x130E JUMP JUMPDEST DUP1 PUSH1 0x1F ADD PUSH1 0x20 DUP1 SWAP2 DIV MUL PUSH1 0x20 ADD PUSH1 0x40 MLOAD SWAP1 DUP2 ADD PUSH1 0x40 MSTORE DUP1 SWAP3 SWAP2 SWAP1 DUP2 DUP2 MSTORE PUSH1 0x20 ADD DUP3 DUP1 SLOAD PUSH2 0xA3D SWAP1 PUSH2 0x130E JUMP JUMPDEST DUP1 ISZERO PUSH2 0xA8A JUMPI DUP1 PUSH1 0x1F LT PUSH2 0xA5F JUMPI PUSH2 0x100 DUP1 DUP4 SLOAD DIV MUL DUP4 MSTORE SWAP2 PUSH1 0x20 ADD SWAP2 PUSH2 0xA8A JUMP JUMPDEST DUP3 ADD SWAP2 SWAP1 PUSH1 0x0 MSTORE PUSH1 0x20 PUSH1 0x0 KECCAK256 SWAP1 JUMPDEST DUP2 SLOAD DUP2 MSTORE SWAP1 PUSH1 0x1 ADD SWAP1 PUSH1 0x20 ADD DUP1 DUP4 GT PUSH2 0xA6D JUMPI DUP3 SWAP1 SUB PUSH1 0x1F AND DUP3 ADD SWAP2 JUMPDEST POP POP POP POP POP DUP2 MSTORE PUSH1 0x20 ADD PUSH1 0x1 DUP3 ADD DUP1 SLOAD PUSH2 0xAA3 SWAP1 PUSH2 0x130E JUMP JUMPDEST DUP1 PUSH1 0x1F ADD PUSH1 0x20 DUP1 SWAP2 DIV MUL PUSH1 0x20 ADD PUSH1 0x40 MLOAD SWAP1 DUP2 ADD PUSH1 0x40 MSTORE DUP1 SWAP3 SWAP2 SWAP1 DUP2 DUP2 MSTORE PUSH1 0x20 ADD DUP3 DUP1 SLOAD PUSH2 0xACF SWAP1 PUSH2 0x130E JUMP JUMPDEST DUP1 ISZERO PUSH2 0xB1C JUMPI DUP1 PUSH1 0x1F LT PUSH2 0xAF1 JUMPI PUSH2 0x100 DUP1 DUP4 SLOAD DIV MUL DUP4 MSTORE SWAP2 PUSH1 0x20 ADD SWAP2 PUSH2 0xB1C JUMP JUMPDEST DUP3 ADD SWAP2 SWAP1 PUSH1 0x0 MSTORE PUSH1 0x20 PUSH1 0x0 KECCAK256 SWAP1 JUMPDEST DUP2 SLOAD DUP2 MSTORE SWAP1 PUSH1 0x1 ADD SWAP1 PUSH1 0x20 ADD DUP1 DUP4 GT PUSH2 0xAFF JUMPI DUP3 SWAP1 SUB PUSH1 0x1F AND DUP3 ADD SWAP2 JUMPDEST POP POP POP POP POP DUP2 MSTORE PUSH1 0x20 ADD PUSH1 0x2 DUP3 ADD DUP1 SLOAD PUSH2 0xB35 SWAP1 PUSH2 0x130E JUMP JUMPDEST DUP1 PUSH1 0x1F ADD PUSH1 0x20 DUP1 SWAP2 DIV MUL PUSH1 0x20 ADD PUSH1 0x40 MLOAD SWAP1 DUP2 ADD PUSH1 0x40 MSTORE DUP1 SWAP3 SWAP2 SWAP1 DUP2 DUP2 MSTORE PUSH1 0x20 ADD DUP3 DUP1 SLOAD PUSH2 0xB61 SWAP1 PUSH2 0x130E JUMP JUMPDEST DUP1 ISZERO PUSH2 0xBAE JUMPI DUP1 PUSH1 0x1F LT PUSH2 0xB83 JUMPI PUSH2 0x100 DUP1 DUP4 SLOAD DIV MUL DUP4 MSTORE SWAP2 PUSH1 0x20 ADD SWAP2 PUSH2 0xBAE JUMP JUMPDEST DUP3 ADD SWAP2 SWAP1 PUSH1 0x0 MSTORE PUSH1 0x20 PUSH1 0x0 KECCAK256 SWAP1 JUMPDEST DUP2 SLOAD DUP2 MSTORE SWAP1 PUSH1 0x1 ADD SWAP1 PUSH1 0x20 ADD DUP1 DUP4 GT PUSH2 0xB91 JUMPI DUP3 SWAP1 SUB PUSH1 0x1F AND DUP3 ADD SWAP2 JUMPDEST POP POP POP POP POP DUP2 MSTORE PUSH1 0x20 ADD PUSH1 0x3 DUP3 ADD SLOAD DUP2 MSTORE PUSH1 0x20 ADD PUSH1 0x4 DUP3 ADD DUP1 SLOAD PUSH2 0xBD1 SWAP1 PUSH2 0x130E JUMP JUMPDEST DUP1 PUSH1 0x1F ADD PUSH1 0x20 DUP1 SWAP2 DIV MUL PUSH1 0x20 ADD PUSH1 0x40 MLOAD SWAP1 DUP2 ADD PUSH1 0x40 MSTORE DUP1 SWAP3 SWAP2 SWAP1 DUP2 DUP2 MSTORE PUSH1 0x20 ADD DUP3 DUP1 SLOAD PUSH2 0xBFD SWAP1 PUSH2 0x130E JUMP JUMPDEST DUP1 ISZERO PUSH2 0xC4A JUMPI DUP1 PUSH1 0x1F LT PUSH2 0xC1F JUMPI PUSH2 0x100 DUP1 DUP4 SLOAD DIV MUL DUP4 MSTORE SWAP2 PUSH1 0x20 ADD SWAP2 PUSH2 0xC4A JUMP JUMPDEST DUP3 ADD SWAP2 SWAP1 PUSH1 0x0 MSTORE PUSH1 0x20 PUSH1 0x0 KECCAK256 SWAP1 JUMPDEST DUP2 SLOAD DUP2 MSTORE SWAP1 PUSH1 0x1 ADD SWAP1 PUSH1 0x20 ADD DUP1 DUP4 GT PUSH2 0xC2D JUMPI DUP3 SWAP1 SUB PUSH1 0x1F AND DUP3 ADD SWAP2 JUMPDEST POP POP POP POP POP DUP2 MSTORE PUSH1 0x20 ADD PUSH1 0x5 DUP3 ADD PUSH1 0x0 SWAP1 SLOAD SWAP1 PUSH2 0x100 EXP SWAP1 DIV PUSH20 0xFFFFFFFFFFFFFFFFFFFFFFFFFFFFFFFFFFFFFFFF AND PUSH20 0xFFFFFFFFFFFFFFFFFFFFFFFFFFFFFFFFFFFFFFFF AND PUSH20 0xFFFFFFFFFFFFFFFFFFFFFFFFFFFFFFFFFFFFFFFF AND DUP2 MSTORE POP POP DUP2 MSTORE PUSH1 0x20 ADD SWAP1 PUSH1 0x1 ADD SWAP1 PUSH2 0x9DE JUMP JUMPDEST POP POP POP POP SWAP1 POP SWAP2 SWAP1 POP JUMP JUMPDEST PUSH1 0x0 DUP2 MLOAD SWAP1 POP SWAP2 SWAP1 POP JUMP JUMPDEST PUSH1 0x0 DUP3 DUP3 MSTORE PUSH1 0x20 DUP3 ADD SWAP1 POP SWAP3 SWAP2 POP POP JUMP JUMPDEST PUSH1 0x0 JUMPDEST DUP4 DUP2 LT ISZERO PUSH2 0xCFD JUMPI DUP1 DUP3 ADD MLOAD DUP2 DUP5 ADD MSTORE PUSH1 0x20 DUP2 ADD SWAP1 POP PUSH2 0xCE2 JUMP JUMPDEST PUSH1 0x0 DUP5 DUP5 ADD MSTORE POP POP POP POP JUMP JUMPDEST PUSH1 0x0 PUSH1 0x1F NOT PUSH1 0x1F DUP4 ADD AND SWAP1 POP SWAP2 SWAP1 POP JUMP JUMPDEST PUSH1 0x0 PUSH2 0xD25 DUP3 PUSH2 0xCC3 JUMP JUMPDEST PUSH2 0xD2F DUP2 DUP6 PUSH2 0xCCE JUMP JUMPDEST SWAP4 POP PUSH2 0xD3F DUP2 DUP6 PUSH1 0x20 DUP7 ADD PUSH2 0xCDF JUMP JUMPDEST PUSH2 0xD48 DUP2 PUSH2 0xD09 JUMP JUMPDEST DUP5 ADD SWAP2 POP POP SWAP3 SWAP2 POP POP JUMP JUMPDEST PUSH1 0x0 PUSH1 0x20 DUP3 ADD SWAP1 POP DUP2 DUP2 SUB PUSH1 0x0 DUP4 ADD MSTORE PUSH2 0xD6D DUP2 DUP5 PUSH2 0xD1A JUMP JUMPDEST SWAP1 POP SWAP3 SWAP2 POP POP JUMP JUMPDEST PUSH1 0x0 PUSH1 0x40 MLOAD SWAP1 POP SWAP1 JUMP JUMPDEST PUSH1 0x0 DUP1 REVERT JUMPDEST PUSH1 0x0 DUP1 REVERT JUMPDEST PUSH1 0x0 DUP1 REVERT JUMPDEST PUSH1 0x0 DUP1 REVERT JUMPDEST PUSH32 0x4E487B7100000000000000000000000000000000000000000000000000000000 PUSH1 0x0 MSTORE PUSH1 0x41 PUSH1 0x4 MSTORE PUSH1 0x24 PUSH1 0x0 REVERT JUMPDEST PUSH2 0xDCB DUP3 PUSH2 0xD09 JUMP JUMPDEST DUP2 ADD DUP2 DUP2 LT PUSH8 0xFFFFFFFFFFFFFFFF DUP3 GT OR ISZERO PUSH2 0xDEA JUMPI PUSH2 0xDE9 PUSH2 0xD93 JUMP JUMPDEST JUMPDEST DUP1 PUSH1 0x40 MSTORE POP POP POP JUMP JUMPDEST PUSH1 0x0 PUSH2 0xDFD PUSH2 0xD75 JUMP JUMPDEST SWAP1 POP PUSH2 0xE09 DUP3 DUP3 PUSH2 0xDC2 JUMP JUMPDEST SWAP2 SWAP1 POP JUMP JUMPDEST PUSH1 0x0 PUSH8 0xFFFFFFFFFFFFFFFF DUP3 GT ISZERO PUSH2 0xE29 JUMPI PUSH2 0xE28 PUSH2 0xD93 JUMP JUMPDEST JUMPDEST PUSH2 0xE32 DUP3 PUSH2 0xD09 JUMP JUMPDEST SWAP1 POP PUSH1 0x20 DUP2 ADD SWAP1 POP SWAP2 SWAP1 POP JUMP JUMPDEST DUP3 DUP2 DUP4 CALLDATACOPY PUSH1 0x0 DUP4 DUP4 ADD MSTORE POP POP POP JUMP JUMPDEST PUSH1 0x0 PUSH2 0xE61 PUSH2 0xE5C DUP5 PUSH2 0xE0E JUMP JUMPDEST PUSH2 0xDF3 JUMP JUMPDEST SWAP1 POP DUP3 DUP2 MSTORE PUSH1 0x20 DUP2 ADD DUP5 DUP5 DUP5 ADD GT ISZERO PUSH2 0xE7D JUMPI PUSH2 0xE7C PUSH2 0xD8E JUMP JUMPDEST JUMPDEST PUSH2 0xE88 DUP5 DUP3 DUP6 PUSH2 0xE3F JUMP JUMPDEST POP SWAP4 SWAP3 POP POP POP JUMP JUMPDEST PUSH1 0x0 DUP3 PUSH1 0x1F DUP4 ADD SLT PUSH2 0xEA5 JUMPI PUSH2 0xEA4 PUSH2 0xD89 JUMP JUMPDEST JUMPDEST DUP2 CALLDATALOAD PUSH2 0xEB5 DUP5 DUP3 PUSH1 0x20 DUP7 ADD PUSH2 0xE4E JUMP JUMPDEST SWAP2 POP POP SWAP3 SWAP2 POP POP JUMP JUMPDEST PUSH1 0x0 DUP2 SWAP1 POP SWAP2 SWAP1 POP JUMP JUMPDEST PUSH2 0xED1 DUP2 PUSH2 0xEBE JUMP JUMPDEST DUP2 EQ PUSH2 0xEDC JUMPI PUSH1 0x0 DUP1 REVERT JUMPDEST POP JUMP JUMPDEST PUSH1 0x0 DUP2 CALLDATALOAD SWAP1 POP PUSH2 0xEEE DUP2 PUSH2 0xEC8 JUMP JUMPDEST SWAP3 SWAP2 POP POP JUMP JUMPDEST PUSH1 0x0 DUP1 PUSH1 0x0 DUP1 PUSH1 0x0 PUSH1 0xA0 DUP7 DUP9 SUB SLT ISZERO PUSH2 0xF10 JUMPI PUSH2 0xF0F PUSH2 0xD7F JUMP JUMPDEST JUMPDEST PUSH1 0x0 DUP7 ADD CALLDATALOAD PUSH8 0xFFFFFFFFFFFFFFFF DUP2 GT ISZERO PUSH2 0xF2E JUMPI PUSH2 0xF2D PUSH2 0xD84 JUMP JUMPDEST JUMPDEST PUSH2 0xF3A DUP9 DUP3 DUP10 ADD PUSH2 0xE90 JUMP JUMPDEST SWAP6 POP POP PUSH1 0x20 DUP7 ADD CALLDATALOAD PUSH8 0xFFFFFFFFFFFFFFFF DUP2 GT ISZERO PUSH2 0xF5B JUMPI PUSH2 0xF5A PUSH2 0xD84 JUMP JUMPDEST JUMPDEST PUSH2 0xF67 DUP9 DUP3 DUP10 ADD PUSH2 0xE90 JUMP JUMPDEST SWAP5 POP POP PUSH1 0x40 DUP7 ADD CALLDATALOAD PUSH8 0xFFFFFFFFFFFFFFFF DUP2 GT ISZERO PUSH2 0xF88 JUMPI PUSH2 0xF87 PUSH2 0xD84 JUMP JUMPDEST JUMPDEST PUSH2 0xF94 DUP9 DUP3 DUP10 ADD PUSH2 0xE90 JUMP JUMPDEST SWAP4 POP POP PUSH1 0x60 PUSH2 0xFA5 DUP9 DUP3 DUP10 ADD PUSH2 0xEDF JUMP JUMPDEST SWAP3 POP POP PUSH1 0x80 DUP7 ADD CALLDATALOAD PUSH8 0xFFFFFFFFFFFFFFFF DUP2 GT ISZERO PUSH2 0xFC6 JUMPI PUSH2 0xFC5 PUSH2 0xD84 JUMP JUMPDEST JUMPDEST PUSH2 0xFD2 DUP9 DUP3 DUP10 ADD PUSH2 0xE90 JUMP JUMPDEST SWAP2 POP POP SWAP3 SWAP6 POP SWAP3 SWAP6 SWAP1 SWAP4 POP JUMP JUMPDEST PUSH2 0xFE8 DUP2 PUSH2 0xEBE JUMP JUMPDEST DUP3 MSTORE POP POP JUMP JUMPDEST PUSH1 0x0 PUSH1 0x20 DUP3 ADD SWAP1 POP PUSH2 0x1003 PUSH1 0x0 DUP4 ADD DUP5 PUSH2 0xFDF JUMP JUMPDEST SWAP3 SWAP2 POP POP JUMP JUMPDEST PUSH1 0x0 DUP2 MLOAD SWAP1 POP SWAP2 SWAP1 POP JUMP JUMPDEST PUSH1 0x0 DUP3 DUP3 MSTORE PUSH1 0x20 DUP3 ADD SWAP1 POP SWAP3 SWAP2 POP POP JUMP JUMPDEST PUSH1 0x0 DUP2 SWAP1 POP PUSH1 0x20 DUP3 ADD SWAP1 POP SWAP2 SWAP1 POP JUMP JUMPDEST PUSH1 0x0 DUP3 DUP3 MSTORE PUSH1 0x20 DUP3 ADD SWAP1 POP SWAP3 SWAP2 POP POP JUMP JUMPDEST PUSH1 0x0 PUSH2 0x1051 DUP3 PUSH2 0xCC3 JUMP JUMPDEST PUSH2 0x105B DUP2 DUP6 PUSH2 0x1035 JUMP JUMPDEST SWAP4 POP PUSH2 0x106B DUP2 DUP6 PUSH1 0x20 DUP7 ADD PUSH2 0xCDF JUMP JUMPDEST PUSH2 0x1074 DUP2 PUSH2 0xD09 JUMP JUMPDEST DUP5 ADD SWAP2 POP POP SWAP3 SWAP2 POP POP JUMP JUMPDEST PUSH2 0x1088 DUP2 PUSH2 0xEBE JUMP JUMPDEST DUP3 MSTORE POP POP JUMP JUMPDEST PUSH1 0x0 PUSH20 0xFFFFFFFFFFFFFFFFFFFFFFFFFFFFFFFFFFFFFFFF DUP3 AND SWAP1 POP SWAP2 SWAP1 POP JUMP JUMPDEST PUSH1 0x0 PUSH2 0x10B9 DUP3 PUSH2 0x108E JUMP JUMPDEST SWAP1 POP SWAP2 SWAP1 POP JUMP JUMPDEST PUSH2 0x10C9 DUP2 PUSH2 0x10AE JUMP JUMPDEST DUP3 MSTORE POP POP JUMP JUMPDEST PUSH1 0x0 PUSH1 0xC0 DUP4 ADD PUSH1 0x0 DUP4 ADD MLOAD DUP5 DUP3 SUB PUSH1 0x0 DUP7 ADD MSTORE PUSH2 0x10EC DUP3 DUP3 PUSH2 0x1046 JUMP JUMPDEST SWAP2 POP POP PUSH1 0x20 DUP4 ADD MLOAD DUP5 DUP3 SUB PUSH1 0x20 DUP7 ADD MSTORE PUSH2 0x1106 DUP3 DUP3 PUSH2 0x1046 JUMP JUMPDEST SWAP2 POP POP PUSH1 0x40 DUP4 ADD MLOAD DUP5 DUP3 SUB PUSH1 0x40 DUP7 ADD MSTORE PUSH2 0x1120 DUP3 DUP3 PUSH2 0x1046 JUMP JUMPDEST SWAP2 POP POP PUSH1 0x60 DUP4 ADD MLOAD PUSH2 0x1135 PUSH1 0x60 DUP7 ADD DUP3 PUSH2 0x107F JUMP JUMPDEST POP PUSH1 0x80 DUP4 ADD MLOAD DUP5 DUP3 SUB PUSH1 0x80 DUP7 ADD MSTORE PUSH2 0x114D DUP3 DUP3 PUSH2 0x1046 JUMP JUMPDEST SWAP2 POP POP PUSH1 0xA0 DUP4 ADD MLOAD PUSH2 0x1162 PUSH1 0xA0 DUP7 ADD DUP3 PUSH2 0x10C0 JUMP JUMPDEST POP DUP1 SWAP2 POP POP SWAP3 SWAP2 POP POP JUMP JUMPDEST PUSH1 0x0 PUSH2 0x1179 DUP4 DUP4 PUSH2 0x10CF JUMP JUMPDEST SWAP1 POP SWAP3 SWAP2 POP POP JUMP JUMPDEST PUSH1 0x0 PUSH1 0x20 DUP3 ADD SWAP1 POP SWAP2 SWAP1 POP JUMP JUMPDEST PUSH1 0x0 PUSH2 0x1199 DUP3 PUSH2 0x1009 JUMP JUMPDEST PUSH2 0x11A3 DUP2 DUP6 PUSH2 0x1014 JUMP JUMPDEST SWAP4 POP DUP4 PUSH1 0x20 DUP3 MUL DUP6 ADD PUSH2 0x11B5 DUP6 PUSH2 0x1025 JUMP JUMPDEST DUP1 PUSH1 0x0 JUMPDEST DUP6 DUP2 LT ISZERO PUSH2 0x11F1 JUMPI DUP5 DUP5 SUB DUP10 MSTORE DUP2 MLOAD PUSH2 0x11D2 DUP6 DUP3 PUSH2 0x116D JUMP JUMPDEST SWAP5 POP PUSH2 0x11DD DUP4 PUSH2 0x1181 JUMP JUMPDEST SWAP3 POP PUSH1 0x20 DUP11 ADD SWAP10 POP POP PUSH1 0x1 DUP2 ADD SWAP1 POP PUSH2 0x11B9 JUMP JUMPDEST POP DUP3 SWAP8 POP DUP8 SWAP6 POP POP POP POP POP POP SWAP3 SWAP2 POP POP JUMP JUMPDEST PUSH1 0x0 PUSH1 0x20 DUP3 ADD SWAP1 POP DUP2 DUP2 SUB PUSH1 0x0 DUP4 ADD MSTORE PUSH2 0x121D DUP2 DUP5 PUSH2 0x118E JUMP JUMPDEST SWAP1 POP SWAP3 SWAP2 POP POP JUMP JUMPDEST PUSH1 0x0 PUSH1 0xFF DUP3 AND SWAP1 POP SWAP2 SWAP1 POP JUMP JUMPDEST PUSH2 0x123B DUP2 PUSH2 0x1225 JUMP JUMPDEST DUP3 MSTORE POP POP JUMP JUMPDEST PUSH1 0x0 PUSH1 0x20 DUP3 ADD SWAP1 POP PUSH2 0x1256 PUSH1 0x0 DUP4 ADD DUP5 PUSH2 0x1232 JUMP JUMPDEST SWAP3 SWAP2 POP POP JUMP JUMPDEST PUSH2 0x1265 DUP2 PUSH2 0x10AE JUMP JUMPDEST DUP2 EQ PUSH2 0x1270 JUMPI PUSH1 0x0 DUP1 REVERT JUMPDEST POP JUMP JUMPDEST PUSH1 0x0 DUP2 CALLDATALOAD SWAP1 POP PUSH2 0x1282 DUP2 PUSH2 0x125C JUMP JUMPDEST SWAP3 SWAP2 POP POP JUMP JUMPDEST PUSH1 0x0 PUSH1 0x20 DUP3 DUP5 SUB SLT ISZERO PUSH2 0x129E JUMPI PUSH2 0x129D PUSH2 0xD7F JUMP JUMPDEST JUMPDEST PUSH1 0x0 PUSH2 0x12AC DUP5 DUP3 DUP6 ADD PUSH2 0x1273 JUMP JUMPDEST SWAP2 POP POP SWAP3 SWAP2 POP POP JUMP JUMPDEST PUSH2 0x12BE DUP2 PUSH2 0x10AE JUMP JUMPDEST DUP3 MSTORE POP POP JUMP JUMPDEST PUSH1 0x0 PUSH1 0x20 DUP3 ADD SWAP1 POP PUSH2 0x12D9 PUSH1 0x0 DUP4 ADD DUP5 PUSH2 0x12B5 JUMP JUMPDEST SWAP3 SWAP2 POP POP JUMP JUMPDEST PUSH32 0x4E487B7100000000000000000000000000000000000000000000000000000000 PUSH1 0x0 MSTORE PUSH1 0x22 PUSH1 0x4 MSTORE PUSH1 0x24 PUSH1 0x0 REVERT JUMPDEST PUSH1 0x0 PUSH1 0x2 DUP3 DIV SWAP1 POP PUSH1 0x1 DUP3 AND DUP1 PUSH2 0x1326 JUMPI PUSH1 0x7F DUP3 AND SWAP2 POP JUMPDEST PUSH1 0x20 DUP3 LT DUP2 SUB PUSH2 0x1339 JUMPI PUSH2 0x1338 PUSH2 0x12DF JUMP JUMPDEST JUMPDEST POP SWAP2 SWAP1 POP JUMP JUMPDEST PUSH1 0x0 DUP2 SWAP1 POP DUP2 PUSH1 0x0 MSTORE PUSH1 0x20 PUSH1 0x0 KECCAK256 SWAP1 POP SWAP2 SWAP1 POP JUMP JUMPDEST PUSH1 0x0 PUSH1 0x20 PUSH1 0x1F DUP4 ADD DIV SWAP1 POP SWAP2 SWAP1 POP JUMP JUMPDEST PUSH1 0x0 DUP3 DUP3 SHL SWAP1 POP SWAP3 SWAP2 POP POP JUMP JUMPDEST PUSH1 0x0 PUSH1 0x8 DUP4 MUL PUSH2 0x13A1 PUSH32 0xFFFFFFFFFFFFFFFFFFFFFFFFFFFFFFFFFFFFFFFFFFFFFFFFFFFFFFFFFFFFFFFF DUP3 PUSH2 0x1364 JUMP JUMPDEST PUSH2 0x13AB DUP7 DUP4 PUSH2 0x1364 JUMP JUMPDEST SWAP6 POP DUP1 NOT DUP5 AND SWAP4 POP DUP1 DUP7 AND DUP5 OR SWAP3 POP POP POP SWAP4 SWAP3 POP POP POP JUMP JUMPDEST PUSH1 0x0 DUP2 SWAP1 POP SWAP2 SWAP1 POP JUMP JUMPDEST PUSH1 0x0 PUSH2 0x13E8 PUSH2 0x13E3 PUSH2 0x13DE DUP5 PUSH2 0xEBE JUMP JUMPDEST PUSH2 0x13C3 JUMP JUMPDEST PUSH2 0xEBE JUMP JUMPDEST SWAP1 POP SWAP2 SWAP1 POP JUMP JUMPDEST PUSH1 0x0 DUP2 SWAP1 POP SWAP2 SWAP1 POP JUMP JUMPDEST PUSH2 0x1402 DUP4 PUSH2 0x13CD JUMP JUMPDEST PUSH2 0x1416 PUSH2 0x140E DUP3 PUSH2 0x13EF JUMP JUMPDEST DUP5 DUP5 SLOAD PUSH2 0x1371 JUMP JUMPDEST DUP3 SSTORE POP POP POP POP JUMP JUMPDEST PUSH1 0x0 SWAP1 JUMP JUMPDEST PUSH2 0x142B PUSH2 0x141E JUMP JUMPDEST PUSH2 0x1436 DUP2 DUP5 DUP5 PUSH2 0x13F9 JUMP JUMPDEST POP POP POP JUMP JUMPDEST JUMPDEST DUP2 DUP2 LT ISZERO PUSH2 0x145A JUMPI PUSH2 0x144F PUSH1 0x0 DUP3 PUSH2 0x1423 JUMP JUMPDEST PUSH1 0x1 DUP2 ADD SWAP1 POP PUSH2 0x143C JUMP JUMPDEST POP POP JUMP JUMPDEST PUSH1 0x1F DUP3 GT ISZERO PUSH2 0x149F JUMPI PUSH2 0x1470 DUP2 PUSH2 0x133F JUMP JUMPDEST PUSH2 0x1479 DUP5 PUSH2 0x1354 JUMP JUMPDEST DUP2 ADD PUSH1 0x20 DUP6 LT ISZERO PUSH2 0x1488 JUMPI DUP2 SWAP1 POP JUMPDEST PUSH2 0x149C PUSH2 0x1494 DUP6 PUSH2 0x1354 JUMP JUMPDEST DUP4 ADD DUP3 PUSH2 0x143B JUMP JUMPDEST POP POP JUMPDEST POP POP POP JUMP JUMPDEST PUSH1 0x0 DUP3 DUP3 SHR SWAP1 POP SWAP3 SWAP2 POP POP JUMP JUMPDEST PUSH1 0x0 PUSH2 0x14C2 PUSH1 0x0 NOT DUP5 PUSH1 0x8 MUL PUSH2 0x14A4 JUMP JUMPDEST NOT DUP1 DUP4 AND SWAP2 POP POP SWAP3 SWAP2 POP POP JUMP JUMPDEST PUSH1 0x0 PUSH2 0x14DB DUP4 DUP4 PUSH2 0x14B1 JUMP JUMPDEST SWAP2 POP DUP3 PUSH1 0x2 MUL DUP3 OR SWAP1 POP SWAP3 SWAP2 POP POP JUMP JUMPDEST PUSH2 0x14F4 DUP3 PUSH2 0xCC3 JUMP JUMPDEST PUSH8 0xFFFFFFFFFFFFFFFF DUP2 GT ISZERO PUSH2 0x150D JUMPI PUSH2 0x150C PUSH2 0xD93 JUMP JUMPDEST JUMPDEST PUSH2 0x1517 DUP3 SLOAD PUSH2 0x130E JUMP JUMPDEST PUSH2 0x1522 DUP3 DUP3 DUP6 PUSH2 0x145E JUMP JUMPDEST PUSH1 0x0 PUSH1 0x20 SWAP1 POP PUSH1 0x1F DUP4 GT PUSH1 0x1 DUP2 EQ PUSH2 0x1555 JUMPI PUSH1 0x0 DUP5 ISZERO PUSH2 0x1543 JUMPI DUP3 DUP8 ADD MLOAD SWAP1 POP JUMPDEST PUSH2 0x154D DUP6 DUP3 PUSH2 0x14CF JUMP JUMPDEST DUP7 SSTORE POP PUSH2 0x15B5 JUMP JUMPDEST PUSH1 0x1F NOT DUP5 AND PUSH2 0x1563 DUP7 PUSH2 0x133F JUMP JUMPDEST PUSH1 0x0 JUMPDEST DUP3 DUP2 LT ISZERO PUSH2 0x158B JUMPI DUP5 DUP10 ADD MLOAD DUP3 SSTORE PUSH1 0x1 DUP3 ADD SWAP2 POP PUSH1 0x20 DUP6 ADD SWAP5 POP PUSH1 0x20 DUP2 ADD SWAP1 POP PUSH2 0x1566 JUMP JUMPDEST DUP7 DUP4 LT ISZERO PUSH2 0x15A8 JUMPI DUP5 DUP10 ADD MLOAD PUSH2 0x15A4 PUSH1 0x1F DUP10 AND DUP3 PUSH2 0x14B1 JUMP JUMPDEST DUP4 SSTORE POP JUMPDEST PUSH1 0x1 PUSH1 0x2 DUP9 MUL ADD DUP9 SSTORE POP POP POP JUMPDEST POP POP POP POP POP POP JUMP JUMPDEST PUSH1 0x0 PUSH1 0xC0 DUP3 ADD SWAP1 POP DUP2 DUP2 SUB PUSH1 0x0 DUP4 ADD MSTORE PUSH2 0x15D7 DUP2 DUP10 PUSH2 0xD1A JUMP JUMPDEST SWAP1 POP DUP2 DUP2 SUB PUSH1 0x20 DUP4 ADD MSTORE PUSH2 0x15EB DUP2 DUP9 PUSH2 0xD1A JUMP JUMPDEST SWAP1 POP DUP2 DUP2 SUB PUSH1 0x40 DUP4 ADD MSTORE PUSH2 0x15FF DUP2 DUP8 PUSH2 0xD1A JUMP JUMPDEST SWAP1 POP PUSH2 0x160E PUSH1 0x60 DUP4 ADD DUP7 PUSH2 0xFDF JUMP JUMPDEST DUP2 DUP2 SUB PUSH1 0x80 DUP4 ADD MSTORE PUSH2 0x1620 DUP2 DUP6 PUSH2 0xD1A JUMP JUMPDEST SWAP1 POP PUSH2 0x162F PUSH1 0xA0 DUP4 ADD DUP5 PUSH2 0x12B5 JUMP JUMPDEST SWAP8 SWAP7 POP POP POP POP POP POP POP JUMP JUMPDEST PUSH32 0x4E487B7100000000000000000000000000000000000000000000000000000000 PUSH1 0x0 MSTORE PUSH1 0x11 PUSH1 0x4 MSTORE PUSH1 0x24 PUSH1 0x0 REVERT JUMPDEST PUSH1 0x0 DUP2 PUSH1 0x1 SHR SWAP1 POP SWAP2 SWAP1 POP JUMP JUMPDEST PUSH1 0x0 DUP1 DUP3 SWAP2 POP DUP4 SWAP1 POP JUMPDEST PUSH1 0x1 DUP6 GT ISZERO PUSH2 0x16C0 JUMPI DUP1 DUP7 DIV DUP2 GT ISZERO PUSH2 0x169C JUMPI PUSH2 0x169B PUSH2 0x163A JUMP JUMPDEST JUMPDEST PUSH1 0x1 DUP6 AND ISZERO PUSH2 0x16AB JUMPI DUP1 DUP3 MUL SWAP2 POP JUMPDEST DUP1 DUP2 MUL SWAP1 POP PUSH2 0x16B9 DUP6 PUSH2 0x1669 JUMP JUMPDEST SWAP5 POP PUSH2 0x1680 JUMP JUMPDEST SWAP5 POP SWAP5 SWAP3 POP POP POP JUMP JUMPDEST PUSH1 0x0 DUP3 PUSH2 0x16D9 JUMPI PUSH1 0x1 SWAP1 POP PUSH2 0x1795 JUMP JUMPDEST DUP2 PUSH2 0x16E7 JUMPI PUSH1 0x0 SWAP1 POP PUSH2 0x1795 JUMP JUMPDEST DUP2 PUSH1 0x1 DUP2 EQ PUSH2 0x16FD JUMPI PUSH1 0x2 DUP2 EQ PUSH2 0x1707 JUMPI PUSH2 0x1736 JUMP JUMPDEST PUSH1 0x1 SWAP2 POP POP PUSH2 0x1795 JUMP JUMPDEST PUSH1 0xFF DUP5 GT ISZERO PUSH2 0x1719 JUMPI PUSH2 0x1718 PUSH2 0x163A JUMP JUMPDEST JUMPDEST DUP4 PUSH1 0x2 EXP SWAP2 POP DUP5 DUP3 GT ISZERO PUSH2 0x1730 JUMPI PUSH2 0x172F PUSH2 0x163A JUMP JUMPDEST JUMPDEST POP PUSH2 0x1795 JUMP JUMPDEST POP PUSH1 0x20 DUP4 LT PUSH2 0x133 DUP4 LT AND PUSH1 0x4E DUP5 LT PUSH1 0xB DUP5 LT AND OR ISZERO PUSH2 0x176B JUMPI DUP3 DUP3 EXP SWAP1 POP DUP4 DUP2 GT ISZERO PUSH2 0x1766 JUMPI PUSH2 0x1765 PUSH2 0x163A JUMP JUMPDEST JUMPDEST PUSH2 0x1795 JUMP JUMPDEST PUSH2 0x1778 DUP5 DUP5 DUP5 PUSH1 0x1 PUSH2 0x1676 JUMP JUMPDEST SWAP3 POP SWAP1 POP DUP2 DUP5 DIV DUP2 GT ISZERO PUSH2 0x178F JUMPI PUSH2 0x178E PUSH2 0x163A JUMP JUMPDEST JUMPDEST DUP2 DUP2 MUL SWAP1 POP JUMPDEST SWAP4 SWAP3 POP POP POP JUMP JUMPDEST PUSH1 0x0 PUSH2 0x17A7 DUP3 PUSH2 0xEBE JUMP JUMPDEST SWAP2 POP PUSH2 0x17B2 DUP4 PUSH2 0xEBE JUMP JUMPDEST SWAP3 POP PUSH2 0x17DF PUSH32 0xFFFFFFFFFFFFFFFFFFFFFFFFFFFFFFFFFFFFFFFFFFFFFFFFFFFFFFFFFFFFFFFF DUP5 DUP5 PUSH2 0x16C9 JUMP JUMPDEST SWAP1 POP SWAP3 SWAP2 POP POP JUMP JUMPDEST PUSH1 0x0 PUSH2 0x17F2 DUP3 PUSH2 0xEBE JUMP JUMPDEST SWAP2 POP PUSH2 0x17FD DUP4 PUSH2 0xEBE JUMP JUMPDEST SWAP3 POP DUP3 DUP3 MUL PUSH2 0x180B DUP2 PUSH2 0xEBE JUMP JUMPDEST SWAP2 POP DUP3 DUP3 DIV DUP5 EQ DUP4 ISZERO OR PUSH2 0x1822 JUMPI PUSH2 0x1821 PUSH2 0x163A JUMP JUMPDEST JUMPDEST POP SWAP3 SWAP2 POP POP JUMP JUMPDEST PUSH32 0x496E73756666696369656E742062616C616E6365000000000000000000000000 PUSH1 0x0 DUP3 ADD MSTORE POP JUMP JUMPDEST PUSH1 0x0 PUSH2 0x185F PUSH1 0x14 DUP4 PUSH2 0xCCE JUMP JUMPDEST SWAP2 POP PUSH2 0x186A DUP3 PUSH2 0x1829 JUMP JUMPDEST PUSH1 0x20 DUP3 ADD SWAP1 POP SWAP2 SWAP1 POP JUMP JUMPDEST PUSH1 0x0 PUSH1 0x20 DUP3 ADD SWAP1 POP DUP2 DUP2 SUB PUSH1 0x0 DUP4 ADD MSTORE PUSH2 0x188E DUP2 PUSH2 0x1852 JUMP JUMPDEST SWAP1 POP SWAP2 SWAP1 POP JUMP JUMPDEST PUSH1 0x0 PUSH2 0x18A0 DUP3 PUSH2 0xEBE JUMP JUMPDEST SWAP2 POP PUSH2 0x18AB DUP4 PUSH2 0xEBE JUMP JUMPDEST SWAP3 POP DUP3 DUP3 SUB SWAP1 POP DUP2 DUP2 GT ISZERO PUSH2 0x18C3 JUMPI PUSH2 0x18C2 PUSH2 0x163A JUMP JUMPDEST JUMPDEST SWAP3 SWAP2 POP POP JUMP JUMPDEST PUSH1 0x0 PUSH2 0x18D4 DUP3 PUSH2 0xEBE JUMP JUMPDEST SWAP2 POP PUSH2 0x18DF DUP4 PUSH2 0xEBE JUMP JUMPDEST SWAP3 POP DUP3 DUP3 ADD SWAP1 POP DUP1 DUP3 GT ISZERO PUSH2 0x18F7 JUMPI PUSH2 0x18F6 PUSH2 0x163A JUMP JUMPDEST JUMPDEST SWAP3 SWAP2 POP POP JUMP INVALID LOG2 PUSH5 0x6970667358 0x22 SLT KECCAK256 0xE8 0xEF 0xD5 0xB3 PUSH3 0xEDEBC2 SMOD DUP4 0xAE 0x23 0xD8 0xFC LOG2 0x22 BYTE CREATE CALLDATACOPY SWAP4 RETURNDATACOPY PUSH29 0x867E610AD944831B955C64736F6C634300081400330000000000000000 "
        },
        "methodIdentifiers": {
          "addCertificate(string,string,string,uint256,string)": "0a1bb211",
          "balanceOf(address)": "70a08231",
          "decimals()": "313ce567",
          "getCertificates()": "1f5ddb4f",
          "getCertificatesByUser(address)": "c7c155e4",
          "name()": "06fdde03",
          "owner()": "8da5cb5b",
          "sendTokens(address)": "837197b2",
          "symbol()": "95d89b41",
          "totalSupply()": "18160ddd"
        }
      }
    }
  }
}