{
  "_format": "hh-sol-artifact-1",
  "contractName": "Learn",
  "sourceName": "contracts/Learn.sol",
  "abi": [
    {
      "inputs": [],
      "stateMutability": "nonpayable",
      "type": "constructor"
    },
    {
      "anonymous": false,
      "inputs": [
        {
          "indexed": true,
          "internalType": "address",
          "name": "user",
          "type": "address"
        },
        {
          "indexed": false,
          "internalType": "string",
          "name": "candidateName",
          "type": "string"
        },
        {
          "indexed": false,
          "internalType": "string",
          "name": "courseTitle",
          "type": "string"
        },
        {
          "indexed": false,
          "internalType": "string",
          "name": "issuingAuthority",
          "type": "string"
        },
        {
          "indexed": false,
          "internalType": "uint256",
          "name": "duration",
          "type": "uint256"
        },
        {
          "indexed": false,
          "internalType": "string",
          "name": "issueDate",
          "type": "string"
        },
        {
          "indexed": false,
          "internalType": "address",
          "name": "addedBy",
          "type": "address"
        }
      ],
      "name": "CertificateAdded",
      "type": "event"
    },
    {
      "anonymous": false,
      "inputs": [
        {
          "indexed": true,
          "internalType": "address",
          "name": "from",
          "type": "address"
        },
        {
          "indexed": true,
          "internalType": "address",
          "name": "to",
          "type": "address"
        },
        {
          "indexed": false,
          "internalType": "uint256",
          "name": "amount",
          "type": "uint256"
        }
      ],
      "name": "TokensTransferred",
      "type": "event"
    },
    {
      "inputs": [
        {
          "internalType": "string",
          "name": "_candidateName",
          "type": "string"
        },
        {
          "internalType": "string",
          "name": "_courseTitle",
          "type": "string"
        },
        {
          "internalType": "string",
          "name": "_issuingAuthority",
          "type": "string"
        },
        {
          "internalType": "uint256",
          "name": "_duration",
          "type": "uint256"
        },
        {
          "internalType": "string",
          "name": "_issueDate",
          "type": "string"
        }
      ],
      "name": "addCertificate",
      "outputs": [],
      "stateMutability": "nonpayable",
      "type": "function"
    },
    {
      "inputs": [
        {
          "internalType": "address",
          "name": "",
          "type": "address"
        }
      ],
      "name": "balanceOf",
      "outputs": [
        {
          "internalType": "uint256",
          "name": "",
          "type": "uint256"
        }
      ],
      "stateMutability": "view",
      "type": "function"
    },
    {
      "inputs": [],
      "name": "decimals",
      "outputs": [
        {
          "internalType": "uint8",
          "name": "",
          "type": "uint8"
        }
      ],
      "stateMutability": "view",
      "type": "function"
    },
    {
      "inputs": [],
      "name": "getCertificates",
      "outputs": [
        {
          "components": [
            {
              "internalType": "string",
              "name": "candidateName",
              "type": "string"
            },
            {
              "internalType": "string",
              "name": "courseTitle",
              "type": "string"
            },
            {
              "internalType": "string",
              "name": "issuingAuthority",
              "type": "string"
            },
            {
              "internalType": "uint256",
              "name": "duration",
              "type": "uint256"
            },
            {
              "internalType": "string",
              "name": "issueDate",
              "type": "string"
            },
            {
              "internalType": "address",
              "name": "addedBy",
              "type": "address"
            }
          ],
          "internalType": "struct Learn.Certificate[]",
          "name": "",
          "type": "tuple[]"
        }
      ],
      "stateMutability": "view",
      "type": "function"
    },
    {
      "inputs": [
        {
          "internalType": "address",
          "name": "user",
          "type": "address"
        }
      ],
      "name": "getCertificatesByUser",
      "outputs": [
        {
          "components": [
            {
              "internalType": "string",
              "name": "candidateName",
              "type": "string"
            },
            {
              "internalType": "string",
              "name": "courseTitle",
              "type": "string"
            },
            {
              "internalType": "string",
              "name": "issuingAuthority",
              "type": "string"
            },
            {
              "internalType": "uint256",
              "name": "duration",
              "type": "uint256"
            },
            {
              "internalType": "string",
              "name": "issueDate",
              "type": "string"
            },
            {
              "internalType": "address",
              "name": "addedBy",
              "type": "address"
            }
          ],
          "internalType": "struct Learn.Certificate[]",
          "name": "",
          "type": "tuple[]"
        }
      ],
      "stateMutability": "view",
      "type": "function"
    },
    {
      "inputs": [],
      "name": "name",
      "outputs": [
        {
          "internalType": "string",
          "name": "",
          "type": "string"
        }
      ],
      "stateMutability": "view",
      "type": "function"
    },
    {
      "inputs": [],
      "name": "owner",
      "outputs": [
        {
          "internalType": "address",
          "name": "",
          "type": "address"
        }
      ],
      "stateMutability": "view",
      "type": "function"
    },
    {
      "inputs": [
        {
          "internalType": "address",
          "name": "_to",
          "type": "address"
        }
      ],
      "name": "sendTokens",
      "outputs": [],
      "stateMutability": "nonpayable",
      "type": "function"
    },
    {
      "inputs": [],
      "name": "symbol",
      "outputs": [
        {
          "internalType": "string",
          "name": "",
          "type": "string"
        }
      ],
      "stateMutability": "view",
      "type": "function"
    },
    {
      "inputs": [],
      "name": "totalSupply",
      "outputs": [
        {
          "internalType": "uint256",
          "name": "",
          "type": "uint256"
        }
      ],
      "stateMutability": "view",
      "type": "function"
    }
  ],
  "bytecode": "0x60806040523480156200001157600080fd5b5033600260006101000a81548173ffffffffffffffffffffffffffffffffffffffff021916908373ffffffffffffffffffffffffffffffffffffffff1602179055506000601260ff16600a62000068919062000279565b6064620000769190620002ca565b9050806000819055508060016000600260009054906101000a900473ffffffffffffffffffffffffffffffffffffffff1673ffffffffffffffffffffffffffffffffffffffff1673ffffffffffffffffffffffffffffffffffffffff168152602001908152602001600020819055505062000315565b7f4e487b7100000000000000000000000000000000000000000000000000000000600052601160045260246000fd5b60008160011c9050919050565b6000808291508390505b60018511156200017a57808604811115620001525762000151620000ec565b5b6001851615620001625780820291505b808102905062000172856200011b565b945062000132565b94509492505050565b60008262000195576001905062000268565b81620001a5576000905062000268565b8160018114620001be5760028114620001c957620001ff565b600191505062000268565b60ff841115620001de57620001dd620000ec565b5b8360020a915084821115620001f857620001f7620000ec565b5b5062000268565b5060208310610133831016604e8410600b8410161715620002395782820a905083811115620002335762000232620000ec565b5b62000268565b62000248848484600162000128565b92509050818404811115620002625762000261620000ec565b5b81810290505b9392505050565b6000819050919050565b600062000286826200026f565b915062000293836200026f565b9250620002c27fffffffffffffffffffffffffffffffffffffffffffffffffffffffffffffffff848462000183565b905092915050565b6000620002d7826200026f565b9150620002e4836200026f565b9250828202620002f4816200026f565b915082820484148315176200030e576200030d620000ec565b5b5092915050565b61193380620003256000396000f3fe608060405234801561001057600080fd5b506004361061009e5760003560e01c806370a082311161006657806370a0823114610137578063837197b2146101675780638da5cb5b1461018357806395d89b41146101a1578063c7c155e4146101bf5761009e565b806306fdde03146100a35780630a1bb211146100c157806318160ddd146100dd5780631f5ddb4f146100fb578063313ce56714610119575b600080fd5b6100ab6101ef565b6040516100b89190610d53565b60405180910390f35b6100db60048036038101906100d69190610ef4565b610228565b005b6100e56103e3565b6040516100f29190610fee565b60405180910390f35b6101036103e9565b6040516101109190611203565b60405180910390f35b61012161072d565b60405161012e9190611241565b60405180910390f35b610151600480360381019061014c9190611288565b610732565b60405161015e9190610fee565b60405180910390f35b610181600480360381019061017c9190611288565b61074a565b005b61018b61091e565b60405161019891906112c4565b60405180910390f35b6101a9610944565b6040516101b69190610d53565b60405180910390f35b6101d960048036038101906101d49190611288565b61097d565b6040516101e69190611203565b60405180910390f35b6040518060400160405280601081526020017f4365727469666963617465546f6b656e0000000000000000000000000000000081525081565b60006040518060c001604052808781526020018681526020018581526020018481526020018381526020013373ffffffffffffffffffffffffffffffffffffffff168152509050600360003373ffffffffffffffffffffffffffffffffffffffff1673ffffffffffffffffffffffffffffffffffffffff16815260200190815260200160002081908060018154018082558091505060019003906000526020600020906006020160009091909190915060008201518160000190816102ed91906114eb565b50602082015181600101908161030391906114eb565b50604082015181600201908161031991906114eb565b5060608201518160030155608082015181600401908161033991906114eb565b5060a08201518160050160006101000a81548173ffffffffffffffffffffffffffffffffffffffff021916908373ffffffffffffffffffffffffffffffffffffffff16021790555050503373ffffffffffffffffffffffffffffffffffffffff167fbd028fae2ef9d4eb068acb1c28a95ddb7646a62ca7f89a9dbbb93d7ead132cdc8787878787336040516103d3969594939291906115bd565b60405180910390a2505050505050565b60005481565b6060600360003373ffffffffffffffffffffffffffffffffffffffff1673ffffffffffffffffffffffffffffffffffffffff168152602001908152602001600020805480602002602001604051908101604052809291908181526020016000905b8282101561072457838290600052602060002090600602016040518060c001604052908160008201805461047d9061130e565b80601f01602080910402602001604051908101604052809291908181526020018280546104a99061130e565b80156104f65780601f106104cb576101008083540402835291602001916104f6565b820191906000526020600020905b8154815290600101906020018083116104d957829003601f168201915b5050505050815260200160018201805461050f9061130e565b80601f016020809104026020016040519081016040528092919081815260200182805461053b9061130e565b80156105885780601f1061055d57610100808354040283529160200191610588565b820191906000526020600020905b81548152906001019060200180831161056b57829003601f168201915b505050505081526020016002820180546105a19061130e565b80601f01602080910402602001604051908101604052809291908181526020018280546105cd9061130e565b801561061a5780601f106105ef5761010080835404028352916020019161061a565b820191906000526020600020905b8154815290600101906020018083116105fd57829003601f168201915b505050505081526020016003820154815260200160048201805461063d9061130e565b80601f01602080910402602001604051908101604052809291908181526020018280546106699061130e565b80156106b65780601f1061068b576101008083540402835291602001916106b6565b820191906000526020600020905b81548152906001019060200180831161069957829003601f168201915b505050505081526020016005820160009054906101000a900473ffffffffffffffffffffffffffffffffffffffff1673ffffffffffffffffffffffffffffffffffffffff1673ffffffffffffffffffffffffffffffffffffffff16815250508152602001906001019061044a565b50505050905090565b601281565b60016020528060005260406000206000915090505481565b601260ff16600a61075b919061179c565b600261076791906117e7565b600160003373ffffffffffffffffffffffffffffffffffffffff1673ffffffffffffffffffffffffffffffffffffffff1681526020019081526020016000205410156107e8576040517f08c379a00000000000000000000000000000000000000000000000000000000081526004016107df90611875565b60405180910390fd5b6000601260ff16600a6107fb919061179c565b600261080791906117e7565b905080600160003373ffffffffffffffffffffffffffffffffffffffff1673ffffffffffffffffffffffffffffffffffffffff16815260200190815260200160002060008282546108589190611895565b9250508190555080600160008473ffffffffffffffffffffffffffffffffffffffff1673ffffffffffffffffffffffffffffffffffffffff16815260200190815260200160002060008282546108ae91906118c9565b925050819055508173ffffffffffffffffffffffffffffffffffffffff163373ffffffffffffffffffffffffffffffffffffffff167f1b89874203ff7f0bba87c969ada3f32fda22ed38a6706d35199d21280c7811b1836040516109129190610fee565b60405180910390a35050565b600260009054906101000a900473ffffffffffffffffffffffffffffffffffffffff1681565b6040518060400160405280600481526020017f434552540000000000000000000000000000000000000000000000000000000081525081565b6060600360008373ffffffffffffffffffffffffffffffffffffffff1673ffffffffffffffffffffffffffffffffffffffff168152602001908152602001600020805480602002602001604051908101604052809291908181526020016000905b82821015610cb857838290600052602060002090600602016040518060c0016040529081600082018054610a119061130e565b80601f0160208091040260200160405190810160405280929190818152602001828054610a3d9061130e565b8015610a8a5780601f10610a5f57610100808354040283529160200191610a8a565b820191906000526020600020905b815481529060010190602001808311610a6d57829003601f168201915b50505050508152602001600182018054610aa39061130e565b80601f0160208091040260200160405190810160405280929190818152602001828054610acf9061130e565b8015610b1c5780601f10610af157610100808354040283529160200191610b1c565b820191906000526020600020905b815481529060010190602001808311610aff57829003601f168201915b50505050508152602001600282018054610b359061130e565b80601f0160208091040260200160405190810160405280929190818152602001828054610b619061130e565b8015610bae5780601f10610b8357610100808354040283529160200191610bae565b820191906000526020600020905b815481529060010190602001808311610b9157829003601f168201915b5050505050815260200160038201548152602001600482018054610bd19061130e565b80601f0160208091040260200160405190810160405280929190818152602001828054610bfd9061130e565b8015610c4a5780601f10610c1f57610100808354040283529160200191610c4a565b820191906000526020600020905b815481529060010190602001808311610c2d57829003601f168201915b505050505081526020016005820160009054906101000a900473ffffffffffffffffffffffffffffffffffffffff1673ffffffffffffffffffffffffffffffffffffffff1673ffffffffffffffffffffffffffffffffffffffff1681525050815260200190600101906109de565b505050509050919050565b600081519050919050565b600082825260208201905092915050565b60005b83811015610cfd578082015181840152602081019050610ce2565b60008484015250505050565b6000601f19601f8301169050919050565b6000610d2582610cc3565b610d2f8185610cce565b9350610d3f818560208601610cdf565b610d4881610d09565b840191505092915050565b60006020820190508181036000830152610d6d8184610d1a565b905092915050565b6000604051905090565b600080fd5b600080fd5b600080fd5b600080fd5b7f4e487b7100000000000000000000000000000000000000000000000000000000600052604160045260246000fd5b610dcb82610d09565b810181811067ffffffffffffffff82111715610dea57610de9610d93565b5b80604052505050565b6000610dfd610d75565b9050610e098282610dc2565b919050565b600067ffffffffffffffff821115610e2957610e28610d93565b5b610e3282610d09565b9050602081019050919050565b82818337600083830152505050565b6000610e61610e5c84610e0e565b610df3565b905082815260208101848484011115610e7d57610e7c610d8e565b5b610e88848285610e3f565b509392505050565b600082601f830112610ea557610ea4610d89565b5b8135610eb5848260208601610e4e565b91505092915050565b6000819050919050565b610ed181610ebe565b8114610edc57600080fd5b50565b600081359050610eee81610ec8565b92915050565b600080600080600060a08688031215610f1057610f0f610d7f565b5b600086013567ffffffffffffffff811115610f2e57610f2d610d84565b5b610f3a88828901610e90565b955050602086013567ffffffffffffffff811115610f5b57610f5a610d84565b5b610f6788828901610e90565b945050604086013567ffffffffffffffff811115610f8857610f87610d84565b5b610f9488828901610e90565b9350506060610fa588828901610edf565b925050608086013567ffffffffffffffff811115610fc657610fc5610d84565b5b610fd288828901610e90565b9150509295509295909350565b610fe881610ebe565b82525050565b60006020820190506110036000830184610fdf565b92915050565b600081519050919050565b600082825260208201905092915050565b6000819050602082019050919050565b600082825260208201905092915050565b600061105182610cc3565b61105b8185611035565b935061106b818560208601610cdf565b61107481610d09565b840191505092915050565b61108881610ebe565b82525050565b600073ffffffffffffffffffffffffffffffffffffffff82169050919050565b60006110b98261108e565b9050919050565b6110c9816110ae565b82525050565b600060c08301600083015184820360008601526110ec8282611046565b915050602083015184820360208601526111068282611046565b915050604083015184820360408601526111208282611046565b9150506060830151611135606086018261107f565b506080830151848203608086015261114d8282611046565b91505060a083015161116260a08601826110c0565b508091505092915050565b600061117983836110cf565b905092915050565b6000602082019050919050565b600061119982611009565b6111a38185611014565b9350836020820285016111b585611025565b8060005b858110156111f157848403895281516111d2858261116d565b94506111dd83611181565b925060208a019950506001810190506111b9565b50829750879550505050505092915050565b6000602082019050818103600083015261121d818461118e565b905092915050565b600060ff82169050919050565b61123b81611225565b82525050565b60006020820190506112566000830184611232565b92915050565b611265816110ae565b811461127057600080fd5b50565b6000813590506112828161125c565b92915050565b60006020828403121561129e5761129d610d7f565b5b60006112ac84828501611273565b91505092915050565b6112be816110ae565b82525050565b60006020820190506112d960008301846112b5565b92915050565b7f4e487b7100000000000000000000000000000000000000000000000000000000600052602260045260246000fd5b6000600282049050600182168061132657607f821691505b602082108103611339576113386112df565b5b50919050565b60008190508160005260206000209050919050565b60006020601f8301049050919050565b600082821b905092915050565b6000600883026113a17fffffffffffffffffffffffffffffffffffffffffffffffffffffffffffffffff82611364565b6113ab8683611364565b95508019841693508086168417925050509392505050565b6000819050919050565b60006113e86113e36113de84610ebe565b6113c3565b610ebe565b9050919050565b6000819050919050565b611402836113cd565b61141661140e826113ef565b848454611371565b825550505050565b600090565b61142b61141e565b6114368184846113f9565b505050565b5b8181101561145a5761144f600082611423565b60018101905061143c565b5050565b601f82111561149f576114708161133f565b61147984611354565b81016020851015611488578190505b61149c61149485611354565b83018261143b565b50505b505050565b600082821c905092915050565b60006114c2600019846008026114a4565b1980831691505092915050565b60006114db83836114b1565b9150826002028217905092915050565b6114f482610cc3565b67ffffffffffffffff81111561150d5761150c610d93565b5b611517825461130e565b61152282828561145e565b600060209050601f8311600181146115555760008415611543578287015190505b61154d85826114cf565b8655506115b5565b601f1984166115638661133f565b60005b8281101561158b57848901518255600182019150602085019450602081019050611566565b868310156115a857848901516115a4601f8916826114b1565b8355505b6001600288020188555050505b505050505050565b600060c08201905081810360008301526115d78189610d1a565b905081810360208301526115eb8188610d1a565b905081810360408301526115ff8187610d1a565b905061160e6060830186610fdf565b81810360808301526116208185610d1a565b905061162f60a08301846112b5565b979650505050505050565b7f4e487b7100000000000000000000000000000000000000000000000000000000600052601160045260246000fd5b60008160011c9050919050565b6000808291508390505b60018511156116c05780860481111561169c5761169b61163a565b5b60018516156116ab5780820291505b80810290506116b985611669565b9450611680565b94509492505050565b6000826116d95760019050611795565b816116e75760009050611795565b81600181146116fd576002811461170757611736565b6001915050611795565b60ff8411156117195761171861163a565b5b8360020a9150848211156117305761172f61163a565b5b50611795565b5060208310610133831016604e8410600b841016171561176b5782820a9050838111156117665761176561163a565b5b611795565b6117788484846001611676565b9250905081840481111561178f5761178e61163a565b5b81810290505b9392505050565b60006117a782610ebe565b91506117b283610ebe565b92506117df7fffffffffffffffffffffffffffffffffffffffffffffffffffffffffffffffff84846116c9565b905092915050565b60006117f282610ebe565b91506117fd83610ebe565b925082820261180b81610ebe565b915082820484148315176118225761182161163a565b5b5092915050565b7f496e73756666696369656e742062616c616e6365000000000000000000000000600082015250565b600061185f601483610cce565b915061186a82611829565b602082019050919050565b6000602082019050818103600083015261188e81611852565b9050919050565b60006118a082610ebe565b91506118ab83610ebe565b92508282039050818111156118c3576118c261163a565b5b92915050565b60006118d482610ebe565b91506118df83610ebe565b92508282019050808211156118f7576118f661163a565b5b9291505056fea2646970667358221220e8efd5b362edebc20783ae23d8fca2221af037933e7c867e610ad944831b955c64736f6c63430008140033",
  "linkReferences": {},
  "deployedLinkReferences": {}
}